{
  "_format": "hh-sol-artifact-1",
  "contractName": "Greeter2",
  "sourceName": "contracts/Greeter.sol",
  "abi": [
    {
      "inputs": [
        {
          "internalType": "string",
          "name": "_greeting",
          "type": "string"
        }
      ],
      "stateMutability": "nonpayable",
      "type": "constructor"
    },
    {
      "inputs": [],
      "name": "greet",
      "outputs": [
        {
          "internalType": "string",
          "name": "",
          "type": "string"
        }
      ],
      "stateMutability": "view",
      "type": "function"
    },
    {
      "inputs": [
        {
          "internalType": "string",
          "name": "_greeting",
          "type": "string"
        }
      ],
      "name": "setGreeting",
      "outputs": [],
      "stateMutability": "nonpayable",
      "type": "function"
    }
  ],
  "bytecode": "0x60806040523480156200001157600080fd5b506040516200182f3803806200182f833981016040819052620000349162000257565b620000646040518060600160405280602281526020016200180d6022913982620000e860201b620003151760201c565b8051620000799060009060208401906200015a565b506040516200008890620001e9565b6020808252600490820152634261776f60e01b6040820152606001604051809103906000f080158015620000c0573d6000803e3d6000fd5b50600180546001600160a01b0319166001600160a01b039290921691909117905550620003ac565b620001358282604051602401620001019291906200033d565b60408051601f198184030181529190526020810180516001600160e01b03908116634b5c427760e01b179091526200013916565b5050565b80516a636f6e736f6c652e6c6f67602083016000808483855afa5050505050565b82805462000168906200036f565b90600052602060002090601f0160209004810192826200018c5760008555620001d7565b82601f10620001a757805160ff1916838001178555620001d7565b82800160010185558215620001d7579182015b82811115620001d7578251825591602001919060010190620001ba565b50620001e5929150620001f7565b5090565b610cae8062000b5f83390190565b5b80821115620001e55760008155600101620001f8565b634e487b7160e01b600052604160045260246000fd5b60005b838110156200024157818101518382015260200162000227565b8381111562000251576000848401525b50505050565b6000602082840312156200026a57600080fd5b81516001600160401b03808211156200028257600080fd5b818401915084601f8301126200029757600080fd5b815181811115620002ac57620002ac6200020e565b604051601f8201601f19908116603f01168101908382118183101715620002d757620002d76200020e565b81604052828152876020848701011115620002f157600080fd5b6200030483602083016020880162000224565b979650505050505050565b600081518084526200032981602086016020860162000224565b601f01601f19169290920160200192915050565b6040815260006200035260408301856200030f565b82810360208401526200036681856200030f565b95945050505050565b600181811c908216806200038457607f821691505b60208210811415620003a657634e487b7160e01b600052602260045260246000fd5b50919050565b6107a380620003bc6000396000f3fe608060405234801561001057600080fd5b50600436106100365760003560e01c8063a41368621461003b578063cfae321714610050575b600080fd5b61004e610049366004610510565b61006e565b005b610058610132565b60405161006591906105ec565b60405180910390f35b61011b60405180606001604052806023815260200161074b602391396000805461009790610606565b80601f01602080910402602001604051908101604052809291908181526020018280546100c390610606565b80156101105780601f106100e557610100808354040283529160200191610110565b820191906000526020600020905b8154815290600101906020018083116100f357829003601f168201915b50505050508361035a565b805161012e906000906020840190610408565b5050565b60606101736040518060400160405280601b81526020017f6f726967696e616c206d736773656e6465722069732020272573270000000000815250336103a6565b6101b86040518060400160405280601e81526020017f6f726967696e616c205f6d736753656e646572282920697320202725732700008152506101b33390565b6103a6565b600160009054906101000a90046001600160a01b03166001600160a01b031663cfae32176040518163ffffffff1660e01b815260040160006040518083038186803b15801561020657600080fd5b505afa15801561021a573d6000803e3d6000fd5b505050506040513d6000823e601f3d908101601f191682016040526102429190810190610641565b5060408051808201909152600a8152697320697320202725732760b01b60208201527392fe2933c795ff95a758362f9535a4d0a516053d9061028490826103a6565b6000805461029190610606565b80601f01602080910402602001604051908101604052809291908181526020018280546102bd90610606565b801561030a5780601f106102df5761010080835404028352916020019161030a565b820191906000526020600020905b8154815290600101906020018083116102ed57829003601f168201915b505050505091505090565b61012e828260405160240161032b9291906106b8565b60408051601f198184030181529190526020810180516001600160e01b0316634b5c427760e01b1790526103e7565b6103a1838383604051602401610372939291906106dd565b60408051601f198184030181529190526020810180516001600160e01b0316632ced7cef60e01b1790526103e7565b505050565b61012e82826040516024016103bc929190610720565b60408051601f198184030181529190526020810180516001600160e01b031663319af33360e01b1790525b80516a636f6e736f6c652e6c6f67602083016000808483855afa5050505050565b82805461041490610606565b90600052602060002090601f016020900481019282610436576000855561047c565b82601f1061044f57805160ff191683800117855561047c565b8280016001018555821561047c579182015b8281111561047c578251825591602001919060010190610461565b5061048892915061048c565b5090565b5b80821115610488576000815560010161048d565b634e487b7160e01b600052604160045260246000fd5b604051601f8201601f1916810167ffffffffffffffff811182821017156104e0576104e06104a1565b604052919050565b600067ffffffffffffffff821115610502576105026104a1565b50601f01601f191660200190565b60006020828403121561052257600080fd5b813567ffffffffffffffff81111561053957600080fd5b8201601f8101841361054a57600080fd5b803561055d610558826104e8565b6104b7565b81815285602083850101111561057257600080fd5b81602084016020830137600091810160200191909152949350505050565b60005b838110156105ab578181015183820152602001610593565b838111156105ba576000848401525b50505050565b600081518084526105d8816020860160208601610590565b601f01601f19169290920160200192915050565b6020815260006105ff60208301846105c0565b9392505050565b600181811c9082168061061a57607f821691505b6020821081141561063b57634e487b7160e01b600052602260045260246000fd5b50919050565b60006020828403121561065357600080fd5b815167ffffffffffffffff81111561066a57600080fd5b8201601f8101841361067b57600080fd5b8051610689610558826104e8565b81815285602083850101111561069e57600080fd5b6106af826020830160208601610590565b95945050505050565b6040815260006106cb60408301856105c0565b82810360208401526106af81856105c0565b6060815260006106f060608301866105c0565b828103602084015261070281866105c0565b9050828103604084015261071681856105c0565b9695505050505050565b60408152600061073360408301856105c0565b905060018060a01b0383166020830152939250505056fe4368616e67696e67206772656574696e672066726f6d202725732720746f2027257327a2646970667358221220f88b8c7e8ae58f965b41f1c7acae262a76bc5f1b16cd3371a8b41d8e288a076f64736f6c6343000808003360806040523480156200001157600080fd5b5060405162000cae38038062000cae8339810160408190526200003491620001e2565b6200006460405180606001604052806022815260200162000c8c60229139826200008160201b620003fb1760201c565b805162000079906000906020840190620000f3565b505062000337565b620000ce82826040516024016200009a929190620002c8565b60408051601f198184030181529190526020810180516001600160e01b03908116634b5c427760e01b17909152620000d216565b5050565b80516a636f6e736f6c652e6c6f67602083016000808483855afa5050505050565b8280546200010190620002fa565b90600052602060002090601f01602090048101928262000125576000855562000170565b82601f106200014057805160ff191683800117855562000170565b8280016001018555821562000170579182015b828111156200017057825182559160200191906001019062000153565b506200017e92915062000182565b5090565b5b808211156200017e576000815560010162000183565b634e487b7160e01b600052604160045260246000fd5b60005b83811015620001cc578181015183820152602001620001b2565b83811115620001dc576000848401525b50505050565b600060208284031215620001f557600080fd5b81516001600160401b03808211156200020d57600080fd5b818401915084601f8301126200022257600080fd5b81518181111562000237576200023762000199565b604051601f8201601f19908116603f0116810190838211818310171562000262576200026262000199565b816040528281528760208487010111156200027c57600080fd5b6200028f836020830160208801620001af565b979650505050505050565b60008151808452620002b4816020860160208601620001af565b601f01601f19169290920160200192915050565b604081526000620002dd60408301856200029a565b8281036020840152620002f181856200029a565b95945050505050565b600181811c908216806200030f57607f821691505b602082108114156200033157634e487b7160e01b600052602260045260246000fd5b50919050565b61094580620003476000396000f3fe608060405234801561001057600080fd5b506004361061004c5760003560e01c80634653feea1461005157806380c9419e14610066578063cfae32171461009b578063f074a053146100b0575b600080fd5b61006461005f3660046106aa565b6100e7565b005b610079610074366004610752565b610231565b6040805193845260208401929092521515908201526060015b60405180910390f35b6100a3610267565b60405161009291906107b8565b6100c36100be366004610752565b61037d565b60408051825181526020808401519082015291810151151590820152606001610092565b6101946040518060600160405280602381526020016108ed6023913960008054610110906107d2565b80601f016020809104026020016040519081016040528092919081815260200182805461013c906107d2565b80156101895780601f1061015e57610100808354040283529160200191610189565b820191906000526020600020905b81548152906001019060200180831161016c57829003601f168201915b505050505084610444565b81516101a79060009060208501906104ed565b5060005b60088160ff16101561022c576001828260ff16600881106101ce576101ce61080d565b60209081029190910151825460018082018555600094855293839020825160039092020190815591810151928201929092556040909101516002909101805460ff19169115159190911790558061022481610823565b9150506101ab565b505050565b6001818154811061024157600080fd5b600091825260209091206003909102018054600182015460029092015490925060ff1683565b60606102a86040518060400160405280601981526020017f63616c6c6564206d736773656e646572206973202027257327000000000000008152503361048b565b6102ed6040518060400160405280601c81526020017f63616c6c6564205f6d736753656e6465722829206973202027257327000000008152506102e83390565b61048b565b600080546102fa906107d2565b80601f0160208091040260200160405190810160405280929190818152602001828054610326906107d2565b80156103735780601f1061034857610100808354040283529160200191610373565b820191906000526020600020905b81548152906001019060200180831161035657829003601f168201915b5050505050905090565b6103a3604051806060016040528060008152602001600081526020016000151581525090565b600182815481106103b6576103b661080d565b60009182526020918290206040805160608101825260039093029091018054835260018101549383019390935260029092015460ff1615159181019190915292915050565b6104408282604051602401610411929190610851565b60408051601f198184030181529190526020810180516001600160e01b0316634b5c427760e01b1790526104cc565b5050565b61022c83838360405160240161045c9392919061087f565b60408051601f198184030181529190526020810180516001600160e01b0316632ced7cef60e01b1790526104cc565b61044082826040516024016104a19291906108c2565b60408051601f198184030181529190526020810180516001600160e01b031663319af33360e01b1790525b80516a636f6e736f6c652e6c6f67602083016000808483855afa5050505050565b8280546104f9906107d2565b90600052602060002090601f01602090048101928261051b5760008555610561565b82601f1061053457805160ff1916838001178555610561565b82800160010185558215610561579182015b82811115610561578251825591602001919060010190610546565b5061056d929150610571565b5090565b5b8082111561056d5760008155600101610572565b634e487b7160e01b600052604160045260246000fd5b604051610100810167ffffffffffffffff811182821017156105c0576105c0610586565b60405290565b6040516060810167ffffffffffffffff811182821017156105c0576105c0610586565b604051601f8201601f1916810167ffffffffffffffff8111828210171561061257610612610586565b604052919050565b600082601f83011261062b57600080fd5b61063361059c565b8061030084018581111561064657600080fd5b845b8181101561069f57606081880312156106615760008081fd5b6106696105c6565b8135815260208083013581830152604080840135801515811461068c5760008081fd5b9083015290855290930192606001610648565b509095945050505050565b60008061032083850312156106be57600080fd5b823567ffffffffffffffff808211156106d657600080fd5b818501915085601f8301126106ea57600080fd5b81356020828211156106fe576106fe610586565b610710601f8301601f191682016105e9565b9250818352878183860101111561072657600080fd5b818185018285013760008183850101528295506107458882890161061a565b9450505050509250929050565b60006020828403121561076457600080fd5b5035919050565b6000815180845260005b8181101561079157602081850181015186830182015201610775565b818111156107a3576000602083870101525b50601f01601f19169290920160200192915050565b6020815260006107cb602083018461076b565b9392505050565b600181811c908216806107e657607f821691505b6020821081141561080757634e487b7160e01b600052602260045260246000fd5b50919050565b634e487b7160e01b600052603260045260246000fd5b600060ff821660ff81141561084857634e487b7160e01b600052601160045260246000fd5b60010192915050565b604081526000610864604083018561076b565b8281036020840152610876818561076b565b95945050505050565b606081526000610892606083018661076b565b82810360208401526108a4818661076b565b905082810360408401526108b8818561076b565b9695505050505050565b6040815260006108d5604083018561076b565b905060018060a01b0383166020830152939250505056fe4368616e67696e67206772656574696e672066726f6d202725732720746f2027257327a264697066735822122065ee9ef8269f75a12bb3c643d1549dad5ddc157e8d22d4985913a0843c1e46ed64736f6c634300080800334465706c6f79696e67206120477265657465722077697468206772656574696e673a4465706c6f79696e67206120477265657465722077697468206772656574696e673a",
  "linkReferences": {},
  "deployedLinkReferences": {}
}