{
  "_format": "hh-sol-artifact-1",
  "contractName": "CoinLocker",
  "sourceName": "contracts/Lockers/CoinLocker.sol",
  "abi": [
    {
      "inputs": [
        {
          "internalType": "address",
          "name": "owner",
          "type": "address"
        },
        {
          "components": [
            {
              "internalType": "uint256",
              "name": "releaseDate",
              "type": "uint256"
            },
            {
              "internalType": "uint256",
              "name": "releaseAmount",
              "type": "uint256"
            },
            {
              "internalType": "bool",
              "name": "hasBeenClaimed",
              "type": "bool"
            }
          ],
          "internalType": "struct VestSchedule[8]",
          "name": "schedule",
          "type": "tuple[8]"
        }
      ],
      "stateMutability": "nonpayable",
      "type": "constructor"
    },
    {
      "inputs": [],
      "name": "_funded",
      "outputs": [
        {
          "internalType": "bool",
          "name": "",
          "type": "bool"
        }
      ],
      "stateMutability": "view",
      "type": "function"
    },
    {
      "inputs": [
        {
          "internalType": "uint256",
          "name": "",
          "type": "uint256"
        }
      ],
      "name": "coinVestSchedule",
      "outputs": [
        {
          "internalType": "uint256",
          "name": "releaseDate",
          "type": "uint256"
        },
        {
          "internalType": "uint256",
          "name": "releaseAmount",
          "type": "uint256"
        },
        {
          "internalType": "bool",
          "name": "hasBeenClaimed",
          "type": "bool"
        }
      ],
      "stateMutability": "view",
      "type": "function"
    },
    {
      "inputs": [],
      "name": "getOwner",
      "outputs": [
        {
          "internalType": "address",
          "name": "",
          "type": "address"
        }
      ],
      "stateMutability": "view",
      "type": "function"
    },
    {
      "inputs": [],
      "name": "release",
      "outputs": [],
      "stateMutability": "nonpayable",
      "type": "function"
    },
    {
      "stateMutability": "payable",
      "type": "receive"
    }
  ],
  "bytecode": "0x608060405234801561001057600080fd5b5060405161066b38038061066b83398101604081905261002f91610168565b60018054336001600160a01b031991821617909155600080549091166001600160a01b0384161781555b60088160ff1610156100ff576000828260ff166008811061007c5761007c610228565b60200201519015156040909101528160ff82166008811061009f5761009f610228565b602002015160028260ff16600881106100ba576100ba610228565b825160039190910291909101908155602082015160018201556040909101516002909101805460ff1916911515919091179055806100f78161023e565b915050610059565b50505061026c565b634e487b7160e01b600052604160045260246000fd5b60405161010081016001600160401b038111828210171561014057610140610107565b60405290565b604051606081016001600160401b038111828210171561014057610140610107565b60008061032080848603121561017d57600080fd5b83516001600160a01b038116811461019457600080fd5b92506020603f850186136101a757600080fd5b6101af61011d565b9185019180878411156101c157600080fd5b8287015b84811015610219576060818a0312156101de5760008081fd5b6101e6610146565b81518152848201518582015260408083015180151581146102075760008081fd5b908201528352918301916060016101c5565b50809450505050509250929050565b634e487b7160e01b600052603260045260246000fd5b600060ff821660ff81141561026357634e487b7160e01b600052601160045260246000fd5b60010192915050565b6103f08061027b6000396000f3fe6080604052600436106100435760003560e01c806386d1a69f146100b357806388439d1e146100ca578063890c2bab1461010c578063893d20e81461013d57600080fd5b366100ae576000805b600881101561008f576002816008811061006857610068610342565b60030201600101548261007b919061036e565b91508061008781610386565b91505061004c565b508034106100ab576001805460ff60a01b1916600160a01b1790555b50005b600080fd5b3480156100bf57600080fd5b506100c8610165565b005b3480156100d657600080fd5b506100ea6100e53660046103a1565b610318565b6040805193845260208401929092521515908201526060015b60405180910390f35b34801561011857600080fd5b5060015461012d90600160a01b900460ff1681565b6040519015158152602001610103565b34801561014957600080fd5b506000546040516001600160a01b039091168152602001610103565b6000805b60088111610226576002816008811061018457610184610342565b600302015442108015906101b35750600281600881106101a6576101a6610342565b600302016002015460ff16155b1561021457600281600881106101cb576101cb610342565b6003020160010154826101de919061036e565b91506001600282600881106101f5576101f5610342565b6003020160020160006101000a81548160ff0219169083151502179055505b8061021e81610386565b915050610169565b47806102795760405162461bcd60e51b815260206004820152601f60248201527f436f696e4c6f636b65723a206e6f20636f696e7320746f2072656c656173650060448201526064015b60405180910390fd5b828110156102d95760405162461bcd60e51b815260206004820152602760248201527f436f696e4c6f636b65723a206e6f7420656e6f75676820636f696e7320746f2060448201526672656c6561736560c81b6064820152608401610270565b600080546040516001600160a01b039091169185156108fc02918691818181858888f19350505050158015610312573d6000803e3d6000fd5b50505050565b6002816008811061032857600080fd5b600302018054600182015460029092015490925060ff1683565b634e487b7160e01b600052603260045260246000fd5b634e487b7160e01b600052601160045260246000fd5b6000821982111561038157610381610358565b500190565b600060001982141561039a5761039a610358565b5060010190565b6000602082840312156103b357600080fd5b503591905056fea2646970667358221220285b731f7afc63b388fa2912016a02a6c25906326dfaf62d42bcff88b7b70bdf64736f6c63430008080033",
  "linkReferences": {},
  "deployedLinkReferences": {}
}