{
	"data": {
		"bytecode": {
			"linkReferences": {},
			"object": "6080604052600060085534801561001557600080fd5b50610e10806100256000396000f3fe608060405234801561001057600080fd5b50600436106101215760003560e01c8063b2b04cc2116100ad578063eb17c4f111610071578063eb17c4f11461030e578063ed338ff11461032c578063f0b532561461034a578063f1f5388e14610368578063f80f5dd51461038657610121565b8063b2b04cc21461027a578063b51661a314610296578063bdb57aa5146102b4578063c59ee1dc146102d2578063e5e5846f146102f057610121565b806342e94c90116100f457806342e94c90146101c25780635040c6e7146101f257806354145cf8146102105780638e14fe721461022e578063aff500f31461024a57610121565b80631cbaee2d1461012657806323548b8b146101445780632bacb2d31461016257806330edc0f514610192575b600080fd5b61012e6103a2565b60405161013b91906107ce565b60405180910390f35b61014c6103a8565b60405161015991906107ce565b60405180910390f35b61017c6004803603810190610177919061081a565b6103ae565b6040516101899190610888565b60405180910390f35b6101ac60048036038101906101a791906108cf565b6103ed565b6040516101b99190610917565b60405180910390f35b6101dc60048036038101906101d791906108cf565b6104aa565b6040516101e991906107ce565b60405180910390f35b6101fa6104c2565b60405161020791906107ce565b60405180910390f35b6102186104c8565b60405161022591906107ce565b60405180910390f35b61024860048036038101906102439190610932565b6104ce565b005b610264600480360381019061025f919061081a565b610573565b6040516102719190610888565b60405180910390f35b610294600480360381019061028f91906109b1565b6105b2565b005b61029e61064c565b6040516102ab91906107ce565b60405180910390f35b6102bc610652565b6040516102c991906107ce565b60405180910390f35b6102da610658565b6040516102e791906107ce565b60405180910390f35b6102f861065e565b6040516103059190610917565b60405180910390f35b610316610671565b60405161032391906107ce565b60405180910390f35b610334610677565b60405161034191906107ce565b60405180910390f35b61035261067d565b60405161035f91906107ce565b60405180910390f35b610370610683565b60405161037d91906107ce565b60405180910390f35b6103a0600480360381019061039b91906108cf565b610689565b005b60015481565b600c5481565b600581815481106103be57600080fd5b906000526020600020016000915054906101000a900473ffffffffffffffffffffffffffffffffffffffff1681565b60008060006010805490509050600091505b8082101561049e5760006010838154811061041d5761041c610a3e565b5b9060005260206000200160009054906101000a900473ffffffffffffffffffffffffffffffffffffffff1690508473ffffffffffffffffffffffffffffffffffffffff168173ffffffffffffffffffffffffffffffffffffffff16141561048a57600193505050506104a5565b50818061049690610a9c565b9250506103ff565b6000925050505b919050565b60006020528060005260406000206000915090505481565b60045481565b600e5481565b82600d8190555081600e8190555080600f819055506000600d5411610528576040517f08c379a000000000000000000000000000000000000000000000000000000000815260040161051f90610b68565b60405180910390fd5b600f54600e541061056e576040517f08c379a000000000000000000000000000000000000000000000000000000000815260040161056590610bfa565b60405180910390fd5b505050565b6012818154811061058357600080fd5b906000526020600020016000915054906101000a900473ffffffffffffffffffffffffffffffffffffffff1681565b85436105be9190610c1a565b60018190555084436105d09190610c1a565b600281905550826003819055508360048190555081600b60006101000a81548160ff02191690831515021790555060045460035410610644576040517f08c379a000000000000000000000000000000000000000000000000000000000815260040161063b90610ce2565b60405180910390fd5b505050505050565b60065481565b600d5481565b60085481565b600b60009054906101000a900460ff1681565b60075481565b60025481565b60035481565b600f5481565b600073ffffffffffffffffffffffffffffffffffffffff168173ffffffffffffffffffffffffffffffffffffffff1614156106f9576040517f08c379a00000000000000000000000000000000000000000000000000000000081526004016106f090610d4e565b60405180910390fd5b60011515600b60009054906101000a900460ff1615151461074f576040517f08c379a000000000000000000000000000000000000000000000000000000000815260040161074690610dba565b60405180910390fd5b6010819080600181540180825580915050600190039060005260206000200160009091909190916101000a81548173ffffffffffffffffffffffffffffffffffffffff021916908373ffffffffffffffffffffffffffffffffffffffff16021790555050565b6000819050919050565b6107c8816107b5565b82525050565b60006020820190506107e360008301846107bf565b92915050565b600080fd5b6107f7816107b5565b811461080257600080fd5b50565b600081359050610814816107ee565b92915050565b6000602082840312156108305761082f6107e9565b5b600061083e84828501610805565b91505092915050565b600073ffffffffffffffffffffffffffffffffffffffff82169050919050565b600061087282610847565b9050919050565b61088281610867565b82525050565b600060208201905061089d6000830184610879565b92915050565b6108ac81610867565b81146108b757600080fd5b50565b6000813590506108c9816108a3565b92915050565b6000602082840312156108e5576108e46107e9565b5b60006108f3848285016108ba565b91505092915050565b60008115159050919050565b610911816108fc565b82525050565b600060208201905061092c6000830184610908565b92915050565b60008060006060848603121561094b5761094a6107e9565b5b600061095986828701610805565b935050602061096a86828701610805565b925050604061097b86828701610805565b9150509250925092565b61098e816108fc565b811461099957600080fd5b50565b6000813590506109ab81610985565b92915050565b60008060008060008060c087890312156109ce576109cd6107e9565b5b60006109dc89828a01610805565b96505060206109ed89828a01610805565b95505060406109fe89828a01610805565b9450506060610a0f89828a01610805565b9350506080610a2089828a0161099c565b92505060a0610a3189828a01610805565b9150509295509295509295565b7f4e487b7100000000000000000000000000000000000000000000000000000000600052603260045260246000fd5b7f4e487b7100000000000000000000000000000000000000000000000000000000600052601160045260246000fd5b6000610aa7826107b5565b91507fffffffffffffffffffffffffffffffffffffffffffffffffffffffffffffffff821415610ada57610ad9610a6d565b5b600182019050919050565b600082825260208201905092915050565b7f50726573616c65526174652063616e6e6f74206265206c657373207468616e2060008201527f3000000000000000000000000000000000000000000000000000000000000000602082015250565b6000610b52602183610ae5565b9150610b5d82610af6565b604082019050919050565b60006020820190508181036000830152610b8181610b45565b9050919050565b7f4d696e696d756d4275792063616e6e6f7420626520486967686572207468616e60008201527f204d6178696d756d427579000000000000000000000000000000000000000000602082015250565b6000610be4602b83610ae5565b9150610bef82610b88565b604082019050919050565b60006020820190508181036000830152610c1381610bd7565b9050919050565b6000610c25826107b5565b9150610c30836107b5565b9250827fffffffffffffffffffffffffffffffffffffffffffffffffffffffffffffffff03821115610c6557610c64610a6d565b5b828201905092915050565b7f536f66746361702073686f756c64206e6f74206265206869676865722074686160008201527f6e20486172646361700000000000000000000000000000000000000000000000602082015250565b6000610ccc602983610ae5565b9150610cd782610c70565b604082019050919050565b60006020820190508181036000830152610cfb81610cbf565b9050919050565b7f496e76616c696420616464726573730000000000000000000000000000000000600082015250565b6000610d38600f83610ae5565b9150610d4382610d02565b602082019050919050565b60006020820190508181036000830152610d6781610d2b565b9050919050565b7f57686974654c697374206973206e6f7420456e61626c65640000000000000000600082015250565b6000610da4601883610ae5565b9150610daf82610d6e565b602082019050919050565b60006020820190508181036000830152610dd381610d97565b905091905056fea26469706673582212205c8d13ae40344c2fc996c42a8862361861de44518158a4d15515faef98b1e44b64736f6c634300080a0033",
			"opcodes": "PUSH1 0x80 PUSH1 0x40 MSTORE PUSH1 0x0 PUSH1 0x8 SSTORE CALLVALUE DUP1 ISZERO PUSH2 0x15 JUMPI PUSH1 0x0 DUP1 REVERT JUMPDEST POP PUSH2 0xE10 DUP1 PUSH2 0x25 PUSH1 0x0 CODECOPY PUSH1 0x0 RETURN INVALID PUSH1 0x80 PUSH1 0x40 MSTORE CALLVALUE DUP1 ISZERO PUSH2 0x10 JUMPI PUSH1 0x0 DUP1 REVERT JUMPDEST POP PUSH1 0x4 CALLDATASIZE LT PUSH2 0x121 JUMPI PUSH1 0x0 CALLDATALOAD PUSH1 0xE0 SHR DUP1 PUSH4 0xB2B04CC2 GT PUSH2 0xAD JUMPI DUP1 PUSH4 0xEB17C4F1 GT PUSH2 0x71 JUMPI DUP1 PUSH4 0xEB17C4F1 EQ PUSH2 0x30E JUMPI DUP1 PUSH4 0xED338FF1 EQ PUSH2 0x32C JUMPI DUP1 PUSH4 0xF0B53256 EQ PUSH2 0x34A JUMPI DUP1 PUSH4 0xF1F5388E EQ PUSH2 0x368 JUMPI DUP1 PUSH4 0xF80F5DD5 EQ PUSH2 0x386 JUMPI PUSH2 0x121 JUMP JUMPDEST DUP1 PUSH4 0xB2B04CC2 EQ PUSH2 0x27A JUMPI DUP1 PUSH4 0xB51661A3 EQ PUSH2 0x296 JUMPI DUP1 PUSH4 0xBDB57AA5 EQ PUSH2 0x2B4 JUMPI DUP1 PUSH4 0xC59EE1DC EQ PUSH2 0x2D2 JUMPI DUP1 PUSH4 0xE5E5846F EQ PUSH2 0x2F0 JUMPI PUSH2 0x121 JUMP JUMPDEST DUP1 PUSH4 0x42E94C90 GT PUSH2 0xF4 JUMPI DUP1 PUSH4 0x42E94C90 EQ PUSH2 0x1C2 JUMPI DUP1 PUSH4 0x5040C6E7 EQ PUSH2 0x1F2 JUMPI DUP1 PUSH4 0x54145CF8 EQ PUSH2 0x210 JUMPI DUP1 PUSH4 0x8E14FE72 EQ PUSH2 0x22E JUMPI DUP1 PUSH4 0xAFF500F3 EQ PUSH2 0x24A JUMPI PUSH2 0x121 JUMP JUMPDEST DUP1 PUSH4 0x1CBAEE2D EQ PUSH2 0x126 JUMPI DUP1 PUSH4 0x23548B8B EQ PUSH2 0x144 JUMPI DUP1 PUSH4 0x2BACB2D3 EQ PUSH2 0x162 JUMPI DUP1 PUSH4 0x30EDC0F5 EQ PUSH2 0x192 JUMPI JUMPDEST PUSH1 0x0 DUP1 REVERT JUMPDEST PUSH2 0x12E PUSH2 0x3A2 JUMP JUMPDEST PUSH1 0x40 MLOAD PUSH2 0x13B SWAP2 SWAP1 PUSH2 0x7CE JUMP JUMPDEST PUSH1 0x40 MLOAD DUP1 SWAP2 SUB SWAP1 RETURN JUMPDEST PUSH2 0x14C PUSH2 0x3A8 JUMP JUMPDEST PUSH1 0x40 MLOAD PUSH2 0x159 SWAP2 SWAP1 PUSH2 0x7CE JUMP JUMPDEST PUSH1 0x40 MLOAD DUP1 SWAP2 SUB SWAP1 RETURN JUMPDEST PUSH2 0x17C PUSH1 0x4 DUP1 CALLDATASIZE SUB DUP2 ADD SWAP1 PUSH2 0x177 SWAP2 SWAP1 PUSH2 0x81A JUMP JUMPDEST PUSH2 0x3AE JUMP JUMPDEST PUSH1 0x40 MLOAD PUSH2 0x189 SWAP2 SWAP1 PUSH2 0x888 JUMP JUMPDEST PUSH1 0x40 MLOAD DUP1 SWAP2 SUB SWAP1 RETURN JUMPDEST PUSH2 0x1AC PUSH1 0x4 DUP1 CALLDATASIZE SUB DUP2 ADD SWAP1 PUSH2 0x1A7 SWAP2 SWAP1 PUSH2 0x8CF JUMP JUMPDEST PUSH2 0x3ED JUMP JUMPDEST PUSH1 0x40 MLOAD PUSH2 0x1B9 SWAP2 SWAP1 PUSH2 0x917 JUMP JUMPDEST PUSH1 0x40 MLOAD DUP1 SWAP2 SUB SWAP1 RETURN JUMPDEST PUSH2 0x1DC PUSH1 0x4 DUP1 CALLDATASIZE SUB DUP2 ADD SWAP1 PUSH2 0x1D7 SWAP2 SWAP1 PUSH2 0x8CF JUMP JUMPDEST PUSH2 0x4AA JUMP JUMPDEST PUSH1 0x40 MLOAD PUSH2 0x1E9 SWAP2 SWAP1 PUSH2 0x7CE JUMP JUMPDEST PUSH1 0x40 MLOAD DUP1 SWAP2 SUB SWAP1 RETURN JUMPDEST PUSH2 0x1FA PUSH2 0x4C2 JUMP JUMPDEST PUSH1 0x40 MLOAD PUSH2 0x207 SWAP2 SWAP1 PUSH2 0x7CE JUMP JUMPDEST PUSH1 0x40 MLOAD DUP1 SWAP2 SUB SWAP1 RETURN JUMPDEST PUSH2 0x218 PUSH2 0x4C8 JUMP JUMPDEST PUSH1 0x40 MLOAD PUSH2 0x225 SWAP2 SWAP1 PUSH2 0x7CE JUMP JUMPDEST PUSH1 0x40 MLOAD DUP1 SWAP2 SUB SWAP1 RETURN JUMPDEST PUSH2 0x248 PUSH1 0x4 DUP1 CALLDATASIZE SUB DUP2 ADD SWAP1 PUSH2 0x243 SWAP2 SWAP1 PUSH2 0x932 JUMP JUMPDEST PUSH2 0x4CE JUMP JUMPDEST STOP JUMPDEST PUSH2 0x264 PUSH1 0x4 DUP1 CALLDATASIZE SUB DUP2 ADD SWAP1 PUSH2 0x25F SWAP2 SWAP1 PUSH2 0x81A JUMP JUMPDEST PUSH2 0x573 JUMP JUMPDEST PUSH1 0x40 MLOAD PUSH2 0x271 SWAP2 SWAP1 PUSH2 0x888 JUMP JUMPDEST PUSH1 0x40 MLOAD DUP1 SWAP2 SUB SWAP1 RETURN JUMPDEST PUSH2 0x294 PUSH1 0x4 DUP1 CALLDATASIZE SUB DUP2 ADD SWAP1 PUSH2 0x28F SWAP2 SWAP1 PUSH2 0x9B1 JUMP JUMPDEST PUSH2 0x5B2 JUMP JUMPDEST STOP JUMPDEST PUSH2 0x29E PUSH2 0x64C JUMP JUMPDEST PUSH1 0x40 MLOAD PUSH2 0x2AB SWAP2 SWAP1 PUSH2 0x7CE JUMP JUMPDEST PUSH1 0x40 MLOAD DUP1 SWAP2 SUB SWAP1 RETURN JUMPDEST PUSH2 0x2BC PUSH2 0x652 JUMP JUMPDEST PUSH1 0x40 MLOAD PUSH2 0x2C9 SWAP2 SWAP1 PUSH2 0x7CE JUMP JUMPDEST PUSH1 0x40 MLOAD DUP1 SWAP2 SUB SWAP1 RETURN JUMPDEST PUSH2 0x2DA PUSH2 0x658 JUMP JUMPDEST PUSH1 0x40 MLOAD PUSH2 0x2E7 SWAP2 SWAP1 PUSH2 0x7CE JUMP JUMPDEST PUSH1 0x40 MLOAD DUP1 SWAP2 SUB SWAP1 RETURN JUMPDEST PUSH2 0x2F8 PUSH2 0x65E JUMP JUMPDEST PUSH1 0x40 MLOAD PUSH2 0x305 SWAP2 SWAP1 PUSH2 0x917 JUMP JUMPDEST PUSH1 0x40 MLOAD DUP1 SWAP2 SUB SWAP1 RETURN JUMPDEST PUSH2 0x316 PUSH2 0x671 JUMP JUMPDEST PUSH1 0x40 MLOAD PUSH2 0x323 SWAP2 SWAP1 PUSH2 0x7CE JUMP JUMPDEST PUSH1 0x40 MLOAD DUP1 SWAP2 SUB SWAP1 RETURN JUMPDEST PUSH2 0x334 PUSH2 0x677 JUMP JUMPDEST PUSH1 0x40 MLOAD PUSH2 0x341 SWAP2 SWAP1 PUSH2 0x7CE JUMP JUMPDEST PUSH1 0x40 MLOAD DUP1 SWAP2 SUB SWAP1 RETURN JUMPDEST PUSH2 0x352 PUSH2 0x67D JUMP JUMPDEST PUSH1 0x40 MLOAD PUSH2 0x35F SWAP2 SWAP1 PUSH2 0x7CE JUMP JUMPDEST PUSH1 0x40 MLOAD DUP1 SWAP2 SUB SWAP1 RETURN JUMPDEST PUSH2 0x370 PUSH2 0x683 JUMP JUMPDEST PUSH1 0x40 MLOAD PUSH2 0x37D SWAP2 SWAP1 PUSH2 0x7CE JUMP JUMPDEST PUSH1 0x40 MLOAD DUP1 SWAP2 SUB SWAP1 RETURN JUMPDEST PUSH2 0x3A0 PUSH1 0x4 DUP1 CALLDATASIZE SUB DUP2 ADD SWAP1 PUSH2 0x39B SWAP2 SWAP1 PUSH2 0x8CF JUMP JUMPDEST PUSH2 0x689 JUMP JUMPDEST STOP JUMPDEST PUSH1 0x1 SLOAD DUP2 JUMP JUMPDEST PUSH1 0xC SLOAD DUP2 JUMP JUMPDEST PUSH1 0x5 DUP2 DUP2 SLOAD DUP2 LT PUSH2 0x3BE JUMPI PUSH1 0x0 DUP1 REVERT JUMPDEST SWAP1 PUSH1 0x0 MSTORE PUSH1 0x20 PUSH1 0x0 KECCAK256 ADD PUSH1 0x0 SWAP2 POP SLOAD SWAP1 PUSH2 0x100 EXP SWAP1 DIV PUSH20 0xFFFFFFFFFFFFFFFFFFFFFFFFFFFFFFFFFFFFFFFF AND DUP2 JUMP JUMPDEST PUSH1 0x0 DUP1 PUSH1 0x0 PUSH1 0x10 DUP1 SLOAD SWAP1 POP SWAP1 POP PUSH1 0x0 SWAP2 POP JUMPDEST DUP1 DUP3 LT ISZERO PUSH2 0x49E JUMPI PUSH1 0x0 PUSH1 0x10 DUP4 DUP2 SLOAD DUP2 LT PUSH2 0x41D JUMPI PUSH2 0x41C PUSH2 0xA3E JUMP JUMPDEST JUMPDEST SWAP1 PUSH1 0x0 MSTORE PUSH1 0x20 PUSH1 0x0 KECCAK256 ADD PUSH1 0x0 SWAP1 SLOAD SWAP1 PUSH2 0x100 EXP SWAP1 DIV PUSH20 0xFFFFFFFFFFFFFFFFFFFFFFFFFFFFFFFFFFFFFFFF AND SWAP1 POP DUP5 PUSH20 0xFFFFFFFFFFFFFFFFFFFFFFFFFFFFFFFFFFFFFFFF AND DUP2 PUSH20 0xFFFFFFFFFFFFFFFFFFFFFFFFFFFFFFFFFFFFFFFF AND EQ ISZERO PUSH2 0x48A JUMPI PUSH1 0x1 SWAP4 POP POP POP POP PUSH2 0x4A5 JUMP JUMPDEST POP DUP2 DUP1 PUSH2 0x496 SWAP1 PUSH2 0xA9C JUMP JUMPDEST SWAP3 POP POP PUSH2 0x3FF JUMP JUMPDEST PUSH1 0x0 SWAP3 POP POP POP JUMPDEST SWAP2 SWAP1 POP JUMP JUMPDEST PUSH1 0x0 PUSH1 0x20 MSTORE DUP1 PUSH1 0x0 MSTORE PUSH1 0x40 PUSH1 0x0 KECCAK256 PUSH1 0x0 SWAP2 POP SWAP1 POP SLOAD DUP2 JUMP JUMPDEST PUSH1 0x4 SLOAD DUP2 JUMP JUMPDEST PUSH1 0xE SLOAD DUP2 JUMP JUMPDEST DUP3 PUSH1 0xD DUP2 SWAP1 SSTORE POP DUP2 PUSH1 0xE DUP2 SWAP1 SSTORE POP DUP1 PUSH1 0xF DUP2 SWAP1 SSTORE POP PUSH1 0x0 PUSH1 0xD SLOAD GT PUSH2 0x528 JUMPI PUSH1 0x40 MLOAD PUSH32 0x8C379A000000000000000000000000000000000000000000000000000000000 DUP2 MSTORE PUSH1 0x4 ADD PUSH2 0x51F SWAP1 PUSH2 0xB68 JUMP JUMPDEST PUSH1 0x40 MLOAD DUP1 SWAP2 SUB SWAP1 REVERT JUMPDEST PUSH1 0xF SLOAD PUSH1 0xE SLOAD LT PUSH2 0x56E JUMPI PUSH1 0x40 MLOAD PUSH32 0x8C379A000000000000000000000000000000000000000000000000000000000 DUP2 MSTORE PUSH1 0x4 ADD PUSH2 0x565 SWAP1 PUSH2 0xBFA JUMP JUMPDEST PUSH1 0x40 MLOAD DUP1 SWAP2 SUB SWAP1 REVERT JUMPDEST POP POP POP JUMP JUMPDEST PUSH1 0x12 DUP2 DUP2 SLOAD DUP2 LT PUSH2 0x583 JUMPI PUSH1 0x0 DUP1 REVERT JUMPDEST SWAP1 PUSH1 0x0 MSTORE PUSH1 0x20 PUSH1 0x0 KECCAK256 ADD PUSH1 0x0 SWAP2 POP SLOAD SWAP1 PUSH2 0x100 EXP SWAP1 DIV PUSH20 0xFFFFFFFFFFFFFFFFFFFFFFFFFFFFFFFFFFFFFFFF AND DUP2 JUMP JUMPDEST DUP6 NUMBER PUSH2 0x5BE SWAP2 SWAP1 PUSH2 0xC1A JUMP JUMPDEST PUSH1 0x1 DUP2 SWAP1 SSTORE POP DUP5 NUMBER PUSH2 0x5D0 SWAP2 SWAP1 PUSH2 0xC1A JUMP JUMPDEST PUSH1 0x2 DUP2 SWAP1 SSTORE POP DUP3 PUSH1 0x3 DUP2 SWAP1 SSTORE POP DUP4 PUSH1 0x4 DUP2 SWAP1 SSTORE POP DUP2 PUSH1 0xB PUSH1 0x0 PUSH2 0x100 EXP DUP2 SLOAD DUP2 PUSH1 0xFF MUL NOT AND SWAP1 DUP4 ISZERO ISZERO MUL OR SWAP1 SSTORE POP PUSH1 0x4 SLOAD PUSH1 0x3 SLOAD LT PUSH2 0x644 JUMPI PUSH1 0x40 MLOAD PUSH32 0x8C379A000000000000000000000000000000000000000000000000000000000 DUP2 MSTORE PUSH1 0x4 ADD PUSH2 0x63B SWAP1 PUSH2 0xCE2 JUMP JUMPDEST PUSH1 0x40 MLOAD DUP1 SWAP2 SUB SWAP1 REVERT JUMPDEST POP POP POP POP POP POP JUMP JUMPDEST PUSH1 0x6 SLOAD DUP2 JUMP JUMPDEST PUSH1 0xD SLOAD DUP2 JUMP JUMPDEST PUSH1 0x8 SLOAD DUP2 JUMP JUMPDEST PUSH1 0xB PUSH1 0x0 SWAP1 SLOAD SWAP1 PUSH2 0x100 EXP SWAP1 DIV PUSH1 0xFF AND DUP2 JUMP JUMPDEST PUSH1 0x7 SLOAD DUP2 JUMP JUMPDEST PUSH1 0x2 SLOAD DUP2 JUMP JUMPDEST PUSH1 0x3 SLOAD DUP2 JUMP JUMPDEST PUSH1 0xF SLOAD DUP2 JUMP JUMPDEST PUSH1 0x0 PUSH20 0xFFFFFFFFFFFFFFFFFFFFFFFFFFFFFFFFFFFFFFFF AND DUP2 PUSH20 0xFFFFFFFFFFFFFFFFFFFFFFFFFFFFFFFFFFFFFFFF AND EQ ISZERO PUSH2 0x6F9 JUMPI PUSH1 0x40 MLOAD PUSH32 0x8C379A000000000000000000000000000000000000000000000000000000000 DUP2 MSTORE PUSH1 0x4 ADD PUSH2 0x6F0 SWAP1 PUSH2 0xD4E JUMP JUMPDEST PUSH1 0x40 MLOAD DUP1 SWAP2 SUB SWAP1 REVERT JUMPDEST PUSH1 0x1 ISZERO ISZERO PUSH1 0xB PUSH1 0x0 SWAP1 SLOAD SWAP1 PUSH2 0x100 EXP SWAP1 DIV PUSH1 0xFF AND ISZERO ISZERO EQ PUSH2 0x74F JUMPI PUSH1 0x40 MLOAD PUSH32 0x8C379A000000000000000000000000000000000000000000000000000000000 DUP2 MSTORE PUSH1 0x4 ADD PUSH2 0x746 SWAP1 PUSH2 0xDBA JUMP JUMPDEST PUSH1 0x40 MLOAD DUP1 SWAP2 SUB SWAP1 REVERT JUMPDEST PUSH1 0x10 DUP2 SWAP1 DUP1 PUSH1 0x1 DUP2 SLOAD ADD DUP1 DUP3 SSTORE DUP1 SWAP2 POP POP PUSH1 0x1 SWAP1 SUB SWAP1 PUSH1 0x0 MSTORE PUSH1 0x20 PUSH1 0x0 KECCAK256 ADD PUSH1 0x0 SWAP1 SWAP2 SWAP1 SWAP2 SWAP1 SWAP2 PUSH2 0x100 EXP DUP2 SLOAD DUP2 PUSH20 0xFFFFFFFFFFFFFFFFFFFFFFFFFFFFFFFFFFFFFFFF MUL NOT AND SWAP1 DUP4 PUSH20 0xFFFFFFFFFFFFFFFFFFFFFFFFFFFFFFFFFFFFFFFF AND MUL OR SWAP1 SSTORE POP POP JUMP JUMPDEST PUSH1 0x0 DUP2 SWAP1 POP SWAP2 SWAP1 POP JUMP JUMPDEST PUSH2 0x7C8 DUP2 PUSH2 0x7B5 JUMP JUMPDEST DUP3 MSTORE POP POP JUMP JUMPDEST PUSH1 0x0 PUSH1 0x20 DUP3 ADD SWAP1 POP PUSH2 0x7E3 PUSH1 0x0 DUP4 ADD DUP5 PUSH2 0x7BF JUMP JUMPDEST SWAP3 SWAP2 POP POP JUMP JUMPDEST PUSH1 0x0 DUP1 REVERT JUMPDEST PUSH2 0x7F7 DUP2 PUSH2 0x7B5 JUMP JUMPDEST DUP2 EQ PUSH2 0x802 JUMPI PUSH1 0x0 DUP1 REVERT JUMPDEST POP JUMP JUMPDEST PUSH1 0x0 DUP2 CALLDATALOAD SWAP1 POP PUSH2 0x814 DUP2 PUSH2 0x7EE JUMP JUMPDEST SWAP3 SWAP2 POP POP JUMP JUMPDEST PUSH1 0x0 PUSH1 0x20 DUP3 DUP5 SUB SLT ISZERO PUSH2 0x830 JUMPI PUSH2 0x82F PUSH2 0x7E9 JUMP JUMPDEST JUMPDEST PUSH1 0x0 PUSH2 0x83E DUP5 DUP3 DUP6 ADD PUSH2 0x805 JUMP JUMPDEST SWAP2 POP POP SWAP3 SWAP2 POP POP JUMP JUMPDEST PUSH1 0x0 PUSH20 0xFFFFFFFFFFFFFFFFFFFFFFFFFFFFFFFFFFFFFFFF DUP3 AND SWAP1 POP SWAP2 SWAP1 POP JUMP JUMPDEST PUSH1 0x0 PUSH2 0x872 DUP3 PUSH2 0x847 JUMP JUMPDEST SWAP1 POP SWAP2 SWAP1 POP JUMP JUMPDEST PUSH2 0x882 DUP2 PUSH2 0x867 JUMP JUMPDEST DUP3 MSTORE POP POP JUMP JUMPDEST PUSH1 0x0 PUSH1 0x20 DUP3 ADD SWAP1 POP PUSH2 0x89D PUSH1 0x0 DUP4 ADD DUP5 PUSH2 0x879 JUMP JUMPDEST SWAP3 SWAP2 POP POP JUMP JUMPDEST PUSH2 0x8AC DUP2 PUSH2 0x867 JUMP JUMPDEST DUP2 EQ PUSH2 0x8B7 JUMPI PUSH1 0x0 DUP1 REVERT JUMPDEST POP JUMP JUMPDEST PUSH1 0x0 DUP2 CALLDATALOAD SWAP1 POP PUSH2 0x8C9 DUP2 PUSH2 0x8A3 JUMP JUMPDEST SWAP3 SWAP2 POP POP JUMP JUMPDEST PUSH1 0x0 PUSH1 0x20 DUP3 DUP5 SUB SLT ISZERO PUSH2 0x8E5 JUMPI PUSH2 0x8E4 PUSH2 0x7E9 JUMP JUMPDEST JUMPDEST PUSH1 0x0 PUSH2 0x8F3 DUP5 DUP3 DUP6 ADD PUSH2 0x8BA JUMP JUMPDEST SWAP2 POP POP SWAP3 SWAP2 POP POP JUMP JUMPDEST PUSH1 0x0 DUP2 ISZERO ISZERO SWAP1 POP SWAP2 SWAP1 POP JUMP JUMPDEST PUSH2 0x911 DUP2 PUSH2 0x8FC JUMP JUMPDEST DUP3 MSTORE POP POP JUMP JUMPDEST PUSH1 0x0 PUSH1 0x20 DUP3 ADD SWAP1 POP PUSH2 0x92C PUSH1 0x0 DUP4 ADD DUP5 PUSH2 0x908 JUMP JUMPDEST SWAP3 SWAP2 POP POP JUMP JUMPDEST PUSH1 0x0 DUP1 PUSH1 0x0 PUSH1 0x60 DUP5 DUP7 SUB SLT ISZERO PUSH2 0x94B JUMPI PUSH2 0x94A PUSH2 0x7E9 JUMP JUMPDEST JUMPDEST PUSH1 0x0 PUSH2 0x959 DUP7 DUP3 DUP8 ADD PUSH2 0x805 JUMP JUMPDEST SWAP4 POP POP PUSH1 0x20 PUSH2 0x96A DUP7 DUP3 DUP8 ADD PUSH2 0x805 JUMP JUMPDEST SWAP3 POP POP PUSH1 0x40 PUSH2 0x97B DUP7 DUP3 DUP8 ADD PUSH2 0x805 JUMP JUMPDEST SWAP2 POP POP SWAP3 POP SWAP3 POP SWAP3 JUMP JUMPDEST PUSH2 0x98E DUP2 PUSH2 0x8FC JUMP JUMPDEST DUP2 EQ PUSH2 0x999 JUMPI PUSH1 0x0 DUP1 REVERT JUMPDEST POP JUMP JUMPDEST PUSH1 0x0 DUP2 CALLDATALOAD SWAP1 POP PUSH2 0x9AB DUP2 PUSH2 0x985 JUMP JUMPDEST SWAP3 SWAP2 POP POP JUMP JUMPDEST PUSH1 0x0 DUP1 PUSH1 0x0 DUP1 PUSH1 0x0 DUP1 PUSH1 0xC0 DUP8 DUP10 SUB SLT ISZERO PUSH2 0x9CE JUMPI PUSH2 0x9CD PUSH2 0x7E9 JUMP JUMPDEST JUMPDEST PUSH1 0x0 PUSH2 0x9DC DUP10 DUP3 DUP11 ADD PUSH2 0x805 JUMP JUMPDEST SWAP7 POP POP PUSH1 0x20 PUSH2 0x9ED DUP10 DUP3 DUP11 ADD PUSH2 0x805 JUMP JUMPDEST SWAP6 POP POP PUSH1 0x40 PUSH2 0x9FE DUP10 DUP3 DUP11 ADD PUSH2 0x805 JUMP JUMPDEST SWAP5 POP POP PUSH1 0x60 PUSH2 0xA0F DUP10 DUP3 DUP11 ADD PUSH2 0x805 JUMP JUMPDEST SWAP4 POP POP PUSH1 0x80 PUSH2 0xA20 DUP10 DUP3 DUP11 ADD PUSH2 0x99C JUMP JUMPDEST SWAP3 POP POP PUSH1 0xA0 PUSH2 0xA31 DUP10 DUP3 DUP11 ADD PUSH2 0x805 JUMP JUMPDEST SWAP2 POP POP SWAP3 SWAP6 POP SWAP3 SWAP6 POP SWAP3 SWAP6 JUMP JUMPDEST PUSH32 0x4E487B7100000000000000000000000000000000000000000000000000000000 PUSH1 0x0 MSTORE PUSH1 0x32 PUSH1 0x4 MSTORE PUSH1 0x24 PUSH1 0x0 REVERT JUMPDEST PUSH32 0x4E487B7100000000000000000000000000000000000000000000000000000000 PUSH1 0x0 MSTORE PUSH1 0x11 PUSH1 0x4 MSTORE PUSH1 0x24 PUSH1 0x0 REVERT JUMPDEST PUSH1 0x0 PUSH2 0xAA7 DUP3 PUSH2 0x7B5 JUMP JUMPDEST SWAP2 POP PUSH32 0xFFFFFFFFFFFFFFFFFFFFFFFFFFFFFFFFFFFFFFFFFFFFFFFFFFFFFFFFFFFFFFFF DUP3 EQ ISZERO PUSH2 0xADA JUMPI PUSH2 0xAD9 PUSH2 0xA6D JUMP JUMPDEST JUMPDEST PUSH1 0x1 DUP3 ADD SWAP1 POP SWAP2 SWAP1 POP JUMP JUMPDEST PUSH1 0x0 DUP3 DUP3 MSTORE PUSH1 0x20 DUP3 ADD SWAP1 POP SWAP3 SWAP2 POP POP JUMP JUMPDEST PUSH32 0x50726573616C65526174652063616E6E6F74206265206C657373207468616E20 PUSH1 0x0 DUP3 ADD MSTORE PUSH32 0x3000000000000000000000000000000000000000000000000000000000000000 PUSH1 0x20 DUP3 ADD MSTORE POP JUMP JUMPDEST PUSH1 0x0 PUSH2 0xB52 PUSH1 0x21 DUP4 PUSH2 0xAE5 JUMP JUMPDEST SWAP2 POP PUSH2 0xB5D DUP3 PUSH2 0xAF6 JUMP JUMPDEST PUSH1 0x40 DUP3 ADD SWAP1 POP SWAP2 SWAP1 POP JUMP JUMPDEST PUSH1 0x0 PUSH1 0x20 DUP3 ADD SWAP1 POP DUP2 DUP2 SUB PUSH1 0x0 DUP4 ADD MSTORE PUSH2 0xB81 DUP2 PUSH2 0xB45 JUMP JUMPDEST SWAP1 POP SWAP2 SWAP1 POP JUMP JUMPDEST PUSH32 0x4D696E696D756D4275792063616E6E6F7420626520486967686572207468616E PUSH1 0x0 DUP3 ADD MSTORE PUSH32 0x204D6178696D756D427579000000000000000000000000000000000000000000 PUSH1 0x20 DUP3 ADD MSTORE POP JUMP JUMPDEST PUSH1 0x0 PUSH2 0xBE4 PUSH1 0x2B DUP4 PUSH2 0xAE5 JUMP JUMPDEST SWAP2 POP PUSH2 0xBEF DUP3 PUSH2 0xB88 JUMP JUMPDEST PUSH1 0x40 DUP3 ADD SWAP1 POP SWAP2 SWAP1 POP JUMP JUMPDEST PUSH1 0x0 PUSH1 0x20 DUP3 ADD SWAP1 POP DUP2 DUP2 SUB PUSH1 0x0 DUP4 ADD MSTORE PUSH2 0xC13 DUP2 PUSH2 0xBD7 JUMP JUMPDEST SWAP1 POP SWAP2 SWAP1 POP JUMP JUMPDEST PUSH1 0x0 PUSH2 0xC25 DUP3 PUSH2 0x7B5 JUMP JUMPDEST SWAP2 POP PUSH2 0xC30 DUP4 PUSH2 0x7B5 JUMP JUMPDEST SWAP3 POP DUP3 PUSH32 0xFFFFFFFFFFFFFFFFFFFFFFFFFFFFFFFFFFFFFFFFFFFFFFFFFFFFFFFFFFFFFFFF SUB DUP3 GT ISZERO PUSH2 0xC65 JUMPI PUSH2 0xC64 PUSH2 0xA6D JUMP JUMPDEST JUMPDEST DUP3 DUP3 ADD SWAP1 POP SWAP3 SWAP2 POP POP JUMP JUMPDEST PUSH32 0x536F66746361702073686F756C64206E6F742062652068696768657220746861 PUSH1 0x0 DUP3 ADD MSTORE PUSH32 0x6E20486172646361700000000000000000000000000000000000000000000000 PUSH1 0x20 DUP3 ADD MSTORE POP JUMP JUMPDEST PUSH1 0x0 PUSH2 0xCCC PUSH1 0x29 DUP4 PUSH2 0xAE5 JUMP JUMPDEST SWAP2 POP PUSH2 0xCD7 DUP3 PUSH2 0xC70 JUMP JUMPDEST PUSH1 0x40 DUP3 ADD SWAP1 POP SWAP2 SWAP1 POP JUMP JUMPDEST PUSH1 0x0 PUSH1 0x20 DUP3 ADD SWAP1 POP DUP2 DUP2 SUB PUSH1 0x0 DUP4 ADD MSTORE PUSH2 0xCFB DUP2 PUSH2 0xCBF JUMP JUMPDEST SWAP1 POP SWAP2 SWAP1 POP JUMP JUMPDEST PUSH32 0x496E76616C696420616464726573730000000000000000000000000000000000 PUSH1 0x0 DUP3 ADD MSTORE POP JUMP JUMPDEST PUSH1 0x0 PUSH2 0xD38 PUSH1 0xF DUP4 PUSH2 0xAE5 JUMP JUMPDEST SWAP2 POP PUSH2 0xD43 DUP3 PUSH2 0xD02 JUMP JUMPDEST PUSH1 0x20 DUP3 ADD SWAP1 POP SWAP2 SWAP1 POP JUMP JUMPDEST PUSH1 0x0 PUSH1 0x20 DUP3 ADD SWAP1 POP DUP2 DUP2 SUB PUSH1 0x0 DUP4 ADD MSTORE PUSH2 0xD67 DUP2 PUSH2 0xD2B JUMP JUMPDEST SWAP1 POP SWAP2 SWAP1 POP JUMP JUMPDEST PUSH32 0x57686974654C697374206973206E6F7420456E61626C65640000000000000000 PUSH1 0x0 DUP3 ADD MSTORE POP JUMP JUMPDEST PUSH1 0x0 PUSH2 0xDA4 PUSH1 0x18 DUP4 PUSH2 0xAE5 JUMP JUMPDEST SWAP2 POP PUSH2 0xDAF DUP3 PUSH2 0xD6E JUMP JUMPDEST PUSH1 0x20 DUP3 ADD SWAP1 POP SWAP2 SWAP1 POP JUMP JUMPDEST PUSH1 0x0 PUSH1 0x20 DUP3 ADD SWAP1 POP DUP2 DUP2 SUB PUSH1 0x0 DUP4 ADD MSTORE PUSH2 0xDD3 DUP2 PUSH2 0xD97 JUMP JUMPDEST SWAP1 POP SWAP2 SWAP1 POP JUMP INVALID LOG2 PUSH5 0x6970667358 0x22 SLT KECCAK256 0x5C DUP14 SGT 0xAE BLOCKHASH CALLVALUE 0x4C 0x2F 0xC9 SWAP7 0xC4 0x2A DUP9 PUSH3 0x361861 0xDE DIFFICULTY MLOAD DUP2 PC LOG4 0xD1 SSTORE ISZERO STATICCALL 0xEF SWAP9 0xB1 0xE4 0x4B PUSH5 0x736F6C6343 STOP ADDMOD EXP STOP CALLER "
		},
		"gasEstimates": {
			"creation": {
				"codeDepositCost": "720000",
				"executionCost": "5759",
				"totalCost": "725759"
			},
			"external": {
				"HardCap()": "2474",
				"MaximumBuy()": "2517",
				"MinimumBuy()": "2496",
				"PresaleRate()": "2496",
				"SoftCap()": "2495",
				"WhitelistEnabled()": "2582",
				"addWhitelist(address)": "51353",
				"contributions(address)": "2837",
				"getWhitelist(address)": "infinite",
				"getsaleDetails(uint256,uint256,uint256)": "infinite",
				"getsaleDetails(uint256,uint256,uint256,uint256,bool,uint256)": "infinite",
				"maxCap()": "2475",
				"raisedAmount()": "2518",
				"saleEndTime()": "2473",
				"saleStartTime()": "2453",
				"totaParticipants(uint256)": "5067",
				"totalBnb()": "2451",
				"totalBnbRecieved()": "2474",
				"totalParticipant(uint256)": "5024"
			}
		},
		"methodIdentifiers": {
			"HardCap()": "5040c6e7",
			"MaximumBuy()": "f1f5388e",
			"MinimumBuy()": "54145cf8",
			"PresaleRate()": "bdb57aa5",
			"SoftCap()": "f0b53256",
			"WhitelistEnabled()": "e5e5846f",
			"addWhitelist(address)": "f80f5dd5",
			"contributions(address)": "42e94c90",
			"getWhitelist(address)": "30edc0f5",
			"getsaleDetails(uint256,uint256,uint256)": "8e14fe72",
			"getsaleDetails(uint256,uint256,uint256,uint256,bool,uint256)": "b2b04cc2",
			"maxCap()": "23548b8b",
			"raisedAmount()": "c59ee1dc",
			"saleEndTime()": "ed338ff1",
			"saleStartTime()": "1cbaee2d",
			"totaParticipants(uint256)": "aff500f3",
			"totalBnb()": "eb17c4f1",
			"totalBnbRecieved()": "b51661a3",
			"totalParticipant(uint256)": "2bacb2d3"
		}
	},
	"abi": [
		{
			"inputs": [],
			"name": "HardCap",
			"outputs": [
				{
					"internalType": "uint256",
					"name": "",
					"type": "uint256"
				}
			],
			"stateMutability": "view",
			"type": "function"
		},
		{
			"inputs": [],
			"name": "MaximumBuy",
			"outputs": [
				{
					"internalType": "uint256",
					"name": "",
					"type": "uint256"
				}
			],
			"stateMutability": "view",
			"type": "function"
		},
		{
			"inputs": [],
			"name": "MinimumBuy",
			"outputs": [
				{
					"internalType": "uint256",
					"name": "",
					"type": "uint256"
				}
			],
			"stateMutability": "view",
			"type": "function"
		},
		{
			"inputs": [],
			"name": "PresaleRate",
			"outputs": [
				{
					"internalType": "uint256",
					"name": "",
					"type": "uint256"
				}
			],
			"stateMutability": "view",
			"type": "function"
		},
		{
			"inputs": [],
			"name": "SoftCap",
			"outputs": [
				{
					"internalType": "uint256",
					"name": "",
					"type": "uint256"
				}
			],
			"stateMutability": "view",
			"type": "function"
		},
		{
			"inputs": [],
			"name": "WhitelistEnabled",
			"outputs": [
				{
					"internalType": "bool",
					"name": "",
					"type": "bool"
				}
			],
			"stateMutability": "view",
			"type": "function"
		},
		{
			"inputs": [
				{
					"internalType": "address",
					"name": "_address",
					"type": "address"
				}
			],
			"name": "addWhitelist",
			"outputs": [],
			"stateMutability": "nonpayable",
			"type": "function"
		},
		{
			"inputs": [
				{
					"internalType": "address",
					"name": "",
					"type": "address"
				}
			],
			"name": "contributions",
			"outputs": [
				{
					"internalType": "uint256",
					"name": "",
					"type": "uint256"
				}
			],
			"stateMutability": "view",
			"type": "function"
		},
		{
			"inputs": [
				{
					"internalType": "address",
					"name": "_address",
					"type": "address"
				}
			],
			"name": "getWhitelist",
			"outputs": [
				{
					"internalType": "bool",
					"name": "",
					"type": "bool"
				}
			],
			"stateMutability": "view",
			"type": "function"
		},
		{
			"inputs": [
				{
					"internalType": "uint256",
					"name": "_presalerate",
					"type": "uint256"
				},
				{
					"internalType": "uint256",
					"name": "_minbuy",
					"type": "uint256"
				},
				{
					"internalType": "uint256",
					"name": "_maxbuy",
					"type": "uint256"
				}
			],
			"name": "getsaleDetails",
			"outputs": [],
			"stateMutability": "nonpayable",
			"type": "function"
		},
		{
			"inputs": [
				{
					"internalType": "uint256",
					"name": "_saleStartTime",
					"type": "uint256"
				},
				{
					"internalType": "uint256",
					"name": "_saleEndTime",
					"type": "uint256"
				},
				{
					"internalType": "uint256",
					"name": "_hardCap",
					"type": "uint256"
				},
				{
					"internalType": "uint256",
					"name": "_softCap",
					"type": "uint256"
				},
				{
					"internalType": "bool",
					"name": "_WhiteListEnabled",
					"type": "bool"
				},
				{
					"internalType": "uint256",
					"name": "_goal",
					"type": "uint256"
				}
			],
			"name": "getsaleDetails",
			"outputs": [],
			"stateMutability": "nonpayable",
			"type": "function"
		},
		{
			"inputs": [],
			"name": "maxCap",
			"outputs": [
				{
					"internalType": "uint256",
					"name": "",
					"type": "uint256"
				}
			],
			"stateMutability": "view",
			"type": "function"
		},
		{
			"inputs": [],
			"name": "raisedAmount",
			"outputs": [
				{
					"internalType": "uint256",
					"name": "",
					"type": "uint256"
				}
			],
			"stateMutability": "view",
			"type": "function"
		},
		{
			"inputs": [],
			"name": "saleEndTime",
			"outputs": [
				{
					"internalType": "uint256",
					"name": "",
					"type": "uint256"
				}
			],
			"stateMutability": "view",
			"type": "function"
		},
		{
			"inputs": [],
			"name": "saleStartTime",
			"outputs": [
				{
					"internalType": "uint256",
					"name": "",
					"type": "uint256"
				}
			],
			"stateMutability": "view",
			"type": "function"
		},
		{
			"inputs": [
				{
					"internalType": "uint256",
					"name": "",
					"type": "uint256"
				}
			],
			"name": "totaParticipants",
			"outputs": [
				{
					"internalType": "address",
					"name": "",
					"type": "address"
				}
			],
			"stateMutability": "view",
			"type": "function"
		},
		{
			"inputs": [],
			"name": "totalBnb",
			"outputs": [
				{
					"internalType": "uint256",
					"name": "",
					"type": "uint256"
				}
			],
			"stateMutability": "view",
			"type": "function"
		},
		{
			"inputs": [],
			"name": "totalBnbRecieved",
			"outputs": [
				{
					"internalType": "uint256",
					"name": "",
					"type": "uint256"
				}
			],
			"stateMutability": "view",
			"type": "function"
		},
		{
			"inputs": [
				{
					"internalType": "uint256",
					"name": "",
					"type": "uint256"
				}
			],
			"name": "totalParticipant",
			"outputs": [
				{
					"internalType": "address",
					"name": "",
					"type": "address"
				}
			],
			"stateMutability": "view",
			"type": "function"
		}
	]
}