{
  "contractName": "Campaign",
  "abi": [
    {
      "inputs": [
        {
          "internalType": "address payable",
          "name": "_creatorsadrress",
          "type": "address"
        }
      ],
      "stateMutability": "nonpayable",
      "type": "constructor"
    },
    {
      "anonymous": false,
      "inputs": [
        {
          "indexed": true,
          "internalType": "address",
          "name": "previousOwner",
          "type": "address"
        },
        {
          "indexed": true,
          "internalType": "address",
          "name": "newOwner",
          "type": "address"
        }
      ],
      "name": "OwnershipTransferred",
      "type": "event"
    },
    {
      "inputs": [],
      "name": "CreatorAddress",
      "outputs": [
        {
          "internalType": "address payable",
          "name": "",
          "type": "address"
        }
      ],
      "stateMutability": "view",
      "type": "function"
    },
    {
      "inputs": [],
      "name": "HardCap",
      "outputs": [
        {
          "internalType": "uint256",
          "name": "",
          "type": "uint256"
        }
      ],
      "stateMutability": "view",
      "type": "function"
    },
    {
      "inputs": [],
      "name": "SoftCap",
      "outputs": [
        {
          "internalType": "uint256",
          "name": "",
          "type": "uint256"
        }
      ],
      "stateMutability": "view",
      "type": "function"
    },
    {
      "inputs": [],
      "name": "WhitelistEnabled",
      "outputs": [
        {
          "internalType": "bool",
          "name": "",
          "type": "bool"
        }
      ],
      "stateMutability": "view",
      "type": "function"
    },
    {
      "inputs": [
        {
          "internalType": "address",
          "name": "_address",
          "type": "address"
        }
      ],
      "name": "addWhitelist",
      "outputs": [],
      "stateMutability": "nonpayable",
      "type": "function"
    },
    {
      "inputs": [
        {
          "internalType": "address",
          "name": "",
          "type": "address"
        }
      ],
      "name": "contributions",
      "outputs": [
        {
          "internalType": "uint256",
          "name": "",
          "type": "uint256"
        }
      ],
      "stateMutability": "view",
      "type": "function"
    },
    {
      "inputs": [
        {
          "internalType": "uint256",
          "name": "",
          "type": "uint256"
        }
      ],
      "name": "creatorsAccts",
      "outputs": [
        {
          "internalType": "address",
          "name": "",
          "type": "address"
        }
      ],
      "stateMutability": "view",
      "type": "function"
    },
    {
      "inputs": [
        {
          "internalType": "address",
          "name": "_address",
          "type": "address"
        }
      ],
      "name": "getWhitelist",
      "outputs": [
        {
          "internalType": "bool",
          "name": "",
          "type": "bool"
        }
      ],
      "stateMutability": "view",
      "type": "function"
    },
    {
      "inputs": [
        {
          "internalType": "uint256",
          "name": "_saleStartTime",
          "type": "uint256"
        },
        {
          "internalType": "uint256",
          "name": "_saleEndTime",
          "type": "uint256"
        },
        {
          "internalType": "uint256",
          "name": "_hardCap",
          "type": "uint256"
        },
        {
          "internalType": "uint256",
          "name": "_softCap",
          "type": "uint256"
        },
        {
          "internalType": "bool",
          "name": "_WhiteListEnabled",
          "type": "bool"
        },
        {
          "internalType": "uint256",
          "name": "_goal",
          "type": "uint256"
        }
      ],
      "name": "getsaleDetails",
      "outputs": [],
      "stateMutability": "nonpayable",
      "type": "function"
    },
    {
      "inputs": [],
      "name": "maxCap",
      "outputs": [
        {
          "internalType": "uint256",
          "name": "",
          "type": "uint256"
        }
      ],
      "stateMutability": "view",
      "type": "function"
    },
    {
      "inputs": [],
      "name": "owner",
      "outputs": [
        {
          "internalType": "address",
          "name": "",
          "type": "address"
        }
      ],
      "stateMutability": "view",
      "type": "function"
    },
    {
      "inputs": [],
      "name": "raisedAmount",
      "outputs": [
        {
          "internalType": "uint256",
          "name": "",
          "type": "uint256"
        }
      ],
      "stateMutability": "view",
      "type": "function"
    },
    {
      "inputs": [],
      "name": "saleEndTime",
      "outputs": [
        {
          "internalType": "uint256",
          "name": "",
          "type": "uint256"
        }
      ],
      "stateMutability": "view",
      "type": "function"
    },
    {
      "inputs": [],
      "name": "saleStartTime",
      "outputs": [
        {
          "internalType": "uint256",
          "name": "",
          "type": "uint256"
        }
      ],
      "stateMutability": "view",
      "type": "function"
    },
    {
      "inputs": [
        {
          "internalType": "uint256",
          "name": "",
          "type": "uint256"
        }
      ],
      "name": "totaParticipants",
      "outputs": [
        {
          "internalType": "address",
          "name": "",
          "type": "address"
        }
      ],
      "stateMutability": "view",
      "type": "function"
    },
    {
      "inputs": [],
      "name": "totalBnb",
      "outputs": [
        {
          "internalType": "uint256",
          "name": "",
          "type": "uint256"
        }
      ],
      "stateMutability": "view",
      "type": "function"
    },
    {
      "inputs": [],
      "name": "totalBnbRecieved",
      "outputs": [
        {
          "internalType": "uint256",
          "name": "",
          "type": "uint256"
        }
      ],
      "stateMutability": "view",
      "type": "function"
    },
    {
      "inputs": [
        {
          "internalType": "uint256",
          "name": "",
          "type": "uint256"
        }
      ],
      "name": "totalParticipant",
      "outputs": [
        {
          "internalType": "address",
          "name": "",
          "type": "address"
        }
      ],
      "stateMutability": "view",
      "type": "function"
    },
    {
      "inputs": [
        {
          "internalType": "address",
          "name": "newOwner",
          "type": "address"
        }
      ],
      "name": "transferOwnership",
      "outputs": [],
      "stateMutability": "payable",
      "type": "function"
    },
    {
      "inputs": [
        {
          "internalType": "address",
          "name": "CreatorAddress_",
          "type": "address"
        },
        {
          "internalType": "string",
          "name": "FirstName_",
          "type": "string"
        },
        {
          "internalType": "string",
          "name": "LastName_",
          "type": "string"
        },
        {
          "internalType": "string",
          "name": "Country_",
          "type": "string"
        },
        {
          "internalType": "string",
          "name": "CoinName_",
          "type": "string"
        },
        {
          "internalType": "string",
          "name": "CoinSymbol_",
          "type": "string"
        }
      ],
      "name": "creatorDetails",
      "outputs": [],
      "stateMutability": "nonpayable",
      "type": "function"
    },
    {
      "inputs": [],
      "name": "getCreatorDetails",
      "outputs": [
        {
          "internalType": "address[]",
          "name": "",
          "type": "address[]"
        }
      ],
      "stateMutability": "view",
      "type": "function"
    },
    {
      "inputs": [
        {
          "internalType": "address",
          "name": "ins",
          "type": "address"
        }
      ],
      "name": "getCreatordetails",
      "outputs": [
        {
          "internalType": "string",
          "name": "",
          "type": "string"
        },
        {
          "internalType": "string",
          "name": "",
          "type": "string"
        },
        {
          "internalType": "string",
          "name": "",
          "type": "string"
        },
        {
          "internalType": "string",
          "name": "",
          "type": "string"
        },
        {
          "internalType": "string",
          "name": "",
          "type": "string"
        }
      ],
      "stateMutability": "view",
      "type": "function"
    }
  ],
  "bytecode": "0x60806040526000600a553480156200001657600080fd5b5060405162001a7738038062001a7783398181016040528101906200003c91906200012e565b336000806101000a81548173ffffffffffffffffffffffffffffffffffffffff021916908373ffffffffffffffffffffffffffffffffffffffff16021790555080601260006101000a81548173ffffffffffffffffffffffffffffffffffffffff021916908373ffffffffffffffffffffffffffffffffffffffff1602179055505062000160565b600080fd5b600073ffffffffffffffffffffffffffffffffffffffff82169050919050565b6000620000f682620000c9565b9050919050565b6200010881620000e9565b81146200011457600080fd5b50565b6000815190506200012881620000fd565b92915050565b600060208284031215620001475762000146620000c4565b5b6000620001578482850162000117565b91505092915050565b61190780620001706000396000f3fe6080604052600436106101355760003560e01c8063b51661a3116100ab578063eb17c4f11161006f578063eb17c4f114610440578063ed338ff11461046b578063f0b5325614610496578063f2ba635f146104c1578063f2fde38b14610502578063f80f5dd51461051e57610135565b8063b51661a314610359578063c59ee1dc14610384578063c7687375146103af578063d9c708de146103d8578063e5e5846f1461041557610135565b806342e94c90116100fd57806342e94c90146102355780635040c6e7146102725780638da5cb5b1461029d578063ab27c8ac146102c8578063aff500f3146102f3578063b2b04cc21461033057610135565b80631cbaee2d1461013a5780631cfa6e9b1461016557806323548b8b146101905780632bacb2d3146101bb57806330edc0f5146101f8575b600080fd5b34801561014657600080fd5b5061014f610547565b60405161015c91906110b8565b60405180910390f35b34801561017157600080fd5b5061017a61054d565b6040516101879190611114565b60405180910390f35b34801561019c57600080fd5b506101a5610573565b6040516101b291906110b8565b60405180910390f35b3480156101c757600080fd5b506101e260048036038101906101dd9190611165565b610579565b6040516101ef91906111b3565b60405180910390f35b34801561020457600080fd5b5061021f600480360381019061021a91906111fa565b6105b8565b60405161022c9190611242565b60405180910390f35b34801561024157600080fd5b5061025c600480360381019061025791906111fa565b610675565b60405161026991906110b8565b60405180910390f35b34801561027e57600080fd5b5061028761068d565b60405161029491906110b8565b60405180910390f35b3480156102a957600080fd5b506102b2610693565b6040516102bf91906111b3565b60405180910390f35b3480156102d457600080fd5b506102dd6106b7565b6040516102ea919061131b565b60405180910390f35b3480156102ff57600080fd5b5061031a60048036038101906103159190611165565b610745565b60405161032791906111b3565b60405180910390f35b34801561033c57600080fd5b5061035760048036038101906103529190611369565b610784565b005b34801561036557600080fd5b5061036e6107d8565b60405161037b91906110b8565b60405180910390f35b34801561039057600080fd5b506103996107de565b6040516103a691906110b8565b60405180910390f35b3480156103bb57600080fd5b506103d660048036038101906103d1919061145b565b6107e4565b005b3480156103e457600080fd5b506103ff60048036038101906103fa9190611165565b6108fc565b60405161040c91906111b3565b60405180910390f35b34801561042157600080fd5b5061042a61093b565b6040516104379190611242565b60405180910390f35b34801561044c57600080fd5b5061045561094e565b60405161046291906110b8565b60405180910390f35b34801561047757600080fd5b50610480610954565b60405161048d91906110b8565b60405180910390f35b3480156104a257600080fd5b506104ab61095a565b6040516104b891906110b8565b60405180910390f35b3480156104cd57600080fd5b506104e860048036038101906104e391906111fa565b610960565b6040516104f9959493929190611625565b60405180910390f35b61051c600480360381019061051791906111fa565b610d81565b005b34801561052a57600080fd5b50610545600480360381019061054091906111fa565b610ed0565b005b60035481565b601260009054906101000a900473ffffffffffffffffffffffffffffffffffffffff1681565b600e5481565b6007818154811061058957600080fd5b906000526020600020016000915054906101000a900473ffffffffffffffffffffffffffffffffffffffff1681565b6000806000600f805490509050600091505b80821015610669576000600f83815481106105e8576105e761169b565b5b9060005260206000200160009054906101000a900473ffffffffffffffffffffffffffffffffffffffff1690508473ffffffffffffffffffffffffffffffffffffffff168173ffffffffffffffffffffffffffffffffffffffff1614156106555760019350505050610670565b508180610661906116f9565b9250506105ca565b6000925050505b919050565b60026020528060005260406000206000915090505481565b60065481565b60008054906101000a900473ffffffffffffffffffffffffffffffffffffffff1681565b6060601480548060200260200160405190810160405280929190818152602001828054801561073b57602002820191906000526020600020905b8160009054906101000a900473ffffffffffffffffffffffffffffffffffffffff1673ffffffffffffffffffffffffffffffffffffffff16815260200190600101908083116106f1575b5050505050905090565b6011818154811061075557600080fd5b906000526020600020016000915054906101000a900473ffffffffffffffffffffffffffffffffffffffff1681565b85436107909190611742565b60038190555084436107a29190611742565b600481905550826005819055508360068190555081600d60006101000a81548160ff021916908315150217905550505050505050565b60085481565b600a5481565b6000601360008d73ffffffffffffffffffffffffffffffffffffffff1673ffffffffffffffffffffffffffffffffffffffff16815260200190815260200160002090508a8a82600001919061083a929190610ffc565b50888882600101919061084e929190610ffc565b508686826002019190610862929190610ffc565b508484826003019190610876929190610ffc565b50828282600401919061088a929190610ffc565b5060148c9080600181540180825580915050600190039060005260206000200160009091909190916101000a81548173ffffffffffffffffffffffffffffffffffffffff021916908373ffffffffffffffffffffffffffffffffffffffff160217905550505050505050505050505050565b6014818154811061090c57600080fd5b906000526020600020016000915054906101000a900473ffffffffffffffffffffffffffffffffffffffff1681565b600d60009054906101000a900460ff1681565b60095481565b60045481565b60055481565b6060806060806060601360008773ffffffffffffffffffffffffffffffffffffffff1673ffffffffffffffffffffffffffffffffffffffff168152602001908152602001600020600001601360008873ffffffffffffffffffffffffffffffffffffffff1673ffffffffffffffffffffffffffffffffffffffff168152602001908152602001600020600101601360008973ffffffffffffffffffffffffffffffffffffffff1673ffffffffffffffffffffffffffffffffffffffff168152602001908152602001600020600201601360008a73ffffffffffffffffffffffffffffffffffffffff1673ffffffffffffffffffffffffffffffffffffffff168152602001908152602001600020600301601360008b73ffffffffffffffffffffffffffffffffffffffff1673ffffffffffffffffffffffffffffffffffffffff168152602001908152602001600020600401848054610abe906117c7565b80601f0160208091040260200160405190810160405280929190818152602001828054610aea906117c7565b8015610b375780601f10610b0c57610100808354040283529160200191610b37565b820191906000526020600020905b815481529060010190602001808311610b1a57829003601f168201915b50505050509450838054610b4a906117c7565b80601f0160208091040260200160405190810160405280929190818152602001828054610b76906117c7565b8015610bc35780601f10610b9857610100808354040283529160200191610bc3565b820191906000526020600020905b815481529060010190602001808311610ba657829003601f168201915b50505050509350828054610bd6906117c7565b80601f0160208091040260200160405190810160405280929190818152602001828054610c02906117c7565b8015610c4f5780601f10610c2457610100808354040283529160200191610c4f565b820191906000526020600020905b815481529060010190602001808311610c3257829003601f168201915b50505050509250818054610c62906117c7565b80601f0160208091040260200160405190810160405280929190818152602001828054610c8e906117c7565b8015610cdb5780601f10610cb057610100808354040283529160200191610cdb565b820191906000526020600020905b815481529060010190602001808311610cbe57829003601f168201915b50505050509150808054610cee906117c7565b80601f0160208091040260200160405190810160405280929190818152602001828054610d1a906117c7565b8015610d675780601f10610d3c57610100808354040283529160200191610d67565b820191906000526020600020905b815481529060010190602001808311610d4a57829003601f168201915b505050505090509450945094509450945091939590929450565b60008054906101000a900473ffffffffffffffffffffffffffffffffffffffff1673ffffffffffffffffffffffffffffffffffffffff163373ffffffffffffffffffffffffffffffffffffffff1614610dd957600080fd5b600073ffffffffffffffffffffffffffffffffffffffff168173ffffffffffffffffffffffffffffffffffffffff161415610e1357600080fd5b8073ffffffffffffffffffffffffffffffffffffffff1660008054906101000a900473ffffffffffffffffffffffffffffffffffffffff1673ffffffffffffffffffffffffffffffffffffffff167f8be0079c531659141344cd1fd0a4f28419497f9722a3daafe3b4186f6b6457e060405160405180910390a3806000806101000a81548173ffffffffffffffffffffffffffffffffffffffff021916908373ffffffffffffffffffffffffffffffffffffffff16021790555050565b600073ffffffffffffffffffffffffffffffffffffffff168173ffffffffffffffffffffffffffffffffffffffff161415610f40576040517f08c379a0000000000000000000000000000000000000000000000000000000008152600401610f3790611845565b60405180910390fd5b60011515600d60009054906101000a900460ff16151514610f96576040517f08c379a0000000000000000000000000000000000000000000000000000000008152600401610f8d906118b1565b60405180910390fd5b600f819080600181540180825580915050600190039060005260206000200160009091909190916101000a81548173ffffffffffffffffffffffffffffffffffffffff021916908373ffffffffffffffffffffffffffffffffffffffff16021790555050565b828054611008906117c7565b90600052602060002090601f01602090048101928261102a5760008555611071565b82601f1061104357803560ff1916838001178555611071565b82800160010185558215611071579182015b82811115611070578235825591602001919060010190611055565b5b50905061107e9190611082565b5090565b5b8082111561109b576000816000905550600101611083565b5090565b6000819050919050565b6110b28161109f565b82525050565b60006020820190506110cd60008301846110a9565b92915050565b600073ffffffffffffffffffffffffffffffffffffffff82169050919050565b60006110fe826110d3565b9050919050565b61110e816110f3565b82525050565b60006020820190506111296000830184611105565b92915050565b600080fd5b600080fd5b6111428161109f565b811461114d57600080fd5b50565b60008135905061115f81611139565b92915050565b60006020828403121561117b5761117a61112f565b5b600061118984828501611150565b91505092915050565b600061119d826110d3565b9050919050565b6111ad81611192565b82525050565b60006020820190506111c860008301846111a4565b92915050565b6111d781611192565b81146111e257600080fd5b50565b6000813590506111f4816111ce565b92915050565b6000602082840312156112105761120f61112f565b5b600061121e848285016111e5565b91505092915050565b60008115159050919050565b61123c81611227565b82525050565b60006020820190506112576000830184611233565b92915050565b600081519050919050565b600082825260208201905092915050565b6000819050602082019050919050565b61129281611192565b82525050565b60006112a48383611289565b60208301905092915050565b6000602082019050919050565b60006112c88261125d565b6112d28185611268565b93506112dd83611279565b8060005b8381101561130e5781516112f58882611298565b9750611300836112b0565b9250506001810190506112e1565b5085935050505092915050565b6000602082019050818103600083015261133581846112bd565b905092915050565b61134681611227565b811461135157600080fd5b50565b6000813590506113638161133d565b92915050565b60008060008060008060c087890312156113865761138561112f565b5b600061139489828a01611150565b96505060206113a589828a01611150565b95505060406113b689828a01611150565b94505060606113c789828a01611150565b93505060806113d889828a01611354565b92505060a06113e989828a01611150565b9150509295509295509295565b600080fd5b600080fd5b600080fd5b60008083601f84011261141b5761141a6113f6565b5b8235905067ffffffffffffffff811115611438576114376113fb565b5b60208301915083600182028301111561145457611453611400565b5b9250929050565b600080600080600080600080600080600060c08c8e0312156114805761147f61112f565b5b600061148e8e828f016111e5565b9b505060208c013567ffffffffffffffff8111156114af576114ae611134565b5b6114bb8e828f01611405565b9a509a505060408c013567ffffffffffffffff8111156114de576114dd611134565b5b6114ea8e828f01611405565b985098505060608c013567ffffffffffffffff81111561150d5761150c611134565b5b6115198e828f01611405565b965096505060808c013567ffffffffffffffff81111561153c5761153b611134565b5b6115488e828f01611405565b945094505060a08c013567ffffffffffffffff81111561156b5761156a611134565b5b6115778e828f01611405565b92509250509295989b509295989b9093969950565b600081519050919050565b600082825260208201905092915050565b60005b838110156115c65780820151818401526020810190506115ab565b838111156115d5576000848401525b50505050565b6000601f19601f8301169050919050565b60006115f78261158c565b6116018185611597565b93506116118185602086016115a8565b61161a816115db565b840191505092915050565b600060a082019050818103600083015261163f81886115ec565b9050818103602083015261165381876115ec565b9050818103604083015261166781866115ec565b9050818103606083015261167b81856115ec565b9050818103608083015261168f81846115ec565b90509695505050505050565b7f4e487b7100000000000000000000000000000000000000000000000000000000600052603260045260246000fd5b7f4e487b7100000000000000000000000000000000000000000000000000000000600052601160045260246000fd5b60006117048261109f565b91507fffffffffffffffffffffffffffffffffffffffffffffffffffffffffffffffff821415611737576117366116ca565b5b600182019050919050565b600061174d8261109f565b91506117588361109f565b9250827fffffffffffffffffffffffffffffffffffffffffffffffffffffffffffffffff0382111561178d5761178c6116ca565b5b828201905092915050565b7f4e487b7100000000000000000000000000000000000000000000000000000000600052602260045260246000fd5b600060028204905060018216806117df57607f821691505b602082108114156117f3576117f2611798565b5b50919050565b7f496e76616c696420616464726573730000000000000000000000000000000000600082015250565b600061182f600f83611597565b915061183a826117f9565b602082019050919050565b6000602082019050818103600083015261185e81611822565b9050919050565b7f57686974654c697374206973206e6f7420456e61626c65640000000000000000600082015250565b600061189b601883611597565b91506118a682611865565b602082019050919050565b600060208201905081810360008301526118ca8161188e565b905091905056fea264697066735822122037a5501c893ddb68fe9c0f3c8ae73343af8df7fc94f8f6d01bcfc813a4fc1b0b64736f6c634300080a0033",
  "immutableReferences": {},
  "source": "// SPDX-License-Identifier: MIT\r\npragma solidity 0.8.10;\r\n\r\nimport \"./Authority/Ownable.sol\";\r\nimport \"./Confirmations/ConfirmAddress.sol\";\r\nimport \"./OtherSaleDetails.sol\";\r\nimport \"./Payments/Payments.sol\";\r\n\r\ncontract Campaign is Ownable, ConfirmAddress, OtherSaleDetails{\r\n     \r\n     // Creator Address.\r\n     address payable public CreatorAddress;\r\n     \r\n     // Struct Creator data using calldata\r\n     struct CreatorDetails{\r\n         string FirstName;\r\n         string LastName;\r\n         string Country;\r\n         string CoinName;\r\n         string CoinSymbol;\r\n     }\r\n     \r\n     \r\n      mapping(address => CreatorDetails) creators;\r\n      address[] public creatorsAccts;\r\n\r\n      constructor(address payable _creatorsadrress) public  {\r\n          CreatorAddress = _creatorsadrress;\r\n      }\r\n\r\n      // this is for the creatorDetails to fill Names, Country, Coinname andCoinSymbol. \r\n      function creatorDetails(address CreatorAddress_, string calldata FirstName_, string calldata LastName_, string calldata Country_, string calldata CoinName_, string calldata CoinSymbol_ ) public {\r\n        \r\n          CreatorDetails storage creation = creators[CreatorAddress_];\r\n          creation.FirstName = FirstName_;\r\n          creation.LastName = LastName_;\r\n          creation.Country = Country_;\r\n          creation.CoinName = CoinName_;\r\n          creation.CoinSymbol = CoinSymbol_;\r\n        \r\n          creatorsAccts.push(CreatorAddress_);\r\n      }\r\n    \r\n      function getCreatorDetails()  public view returns (address[] memory) {\r\n      return creatorsAccts;\r\n      }\r\n    \r\n       function getCreatordetails(address ins) public view returns(string memory, string memory, string memory, string memory, string memory ){\r\n           return(creators[ins].FirstName, creators[ins].LastName, creators[ins].Country, creators[ins].CoinName, creators[ins].CoinSymbol);\r\n       }\r\n    \r\n}",
  "sourcePath": "C:\\Users\\user\\Documents\\GitHub\\zsale\\ContractCode\\contracts\\Campaign.sol",
  "compiler": {
    "name": "solc",
    "version": "0.8.10+commit.fc410830.Emscripten.clang"
  },
  "schemaVersion": "3.4.3",
  "updatedAt": "2021-11-10T16:07:30.141Z",
  "devdoc": {
    "kind": "dev",
    "methods": {},
    "version": 1
  },
  "userdoc": {
    "kind": "user",
    "methods": {},
    "version": 1
  }
}