{
  "contractName": "OtherSaleDetails",
  "abi": [
    {
      "inputs": [],
      "name": "HardCap",
      "outputs": [
        {
          "internalType": "uint256",
          "name": "",
          "type": "uint256"
        }
      ],
      "stateMutability": "view",
      "type": "function"
    },
    {
      "inputs": [],
      "name": "SoftCap",
      "outputs": [
        {
          "internalType": "uint256",
          "name": "",
          "type": "uint256"
        }
      ],
      "stateMutability": "view",
      "type": "function"
    },
    {
      "inputs": [],
      "name": "WhitelistEnabled",
      "outputs": [
        {
          "internalType": "bool",
          "name": "",
          "type": "bool"
        }
      ],
      "stateMutability": "view",
      "type": "function"
    },
    {
      "inputs": [
        {
          "internalType": "address",
          "name": "",
          "type": "address"
        }
      ],
      "name": "contributions",
      "outputs": [
        {
          "internalType": "uint256",
          "name": "",
          "type": "uint256"
        }
      ],
      "stateMutability": "view",
      "type": "function"
    },
    {
      "inputs": [],
      "name": "maxCap",
      "outputs": [
        {
          "internalType": "uint256",
          "name": "",
          "type": "uint256"
        }
      ],
      "stateMutability": "view",
      "type": "function"
    },
    {
      "inputs": [],
      "name": "raisedAmount",
      "outputs": [
        {
          "internalType": "uint256",
          "name": "",
          "type": "uint256"
        }
      ],
      "stateMutability": "view",
      "type": "function"
    },
    {
      "inputs": [],
      "name": "saleEndTime",
      "outputs": [
        {
          "internalType": "uint256",
          "name": "",
          "type": "uint256"
        }
      ],
      "stateMutability": "view",
      "type": "function"
    },
    {
      "inputs": [],
      "name": "saleStartTime",
      "outputs": [
        {
          "internalType": "uint256",
          "name": "",
          "type": "uint256"
        }
      ],
      "stateMutability": "view",
      "type": "function"
    },
    {
      "inputs": [
        {
          "internalType": "uint256",
          "name": "",
          "type": "uint256"
        }
      ],
      "name": "totaParticipants",
      "outputs": [
        {
          "internalType": "address",
          "name": "",
          "type": "address"
        }
      ],
      "stateMutability": "view",
      "type": "function"
    },
    {
      "inputs": [],
      "name": "totalBnb",
      "outputs": [
        {
          "internalType": "uint256",
          "name": "",
          "type": "uint256"
        }
      ],
      "stateMutability": "view",
      "type": "function"
    },
    {
      "inputs": [],
      "name": "totalBnbRecieved",
      "outputs": [
        {
          "internalType": "uint256",
          "name": "",
          "type": "uint256"
        }
      ],
      "stateMutability": "view",
      "type": "function"
    },
    {
      "inputs": [
        {
          "internalType": "uint256",
          "name": "",
          "type": "uint256"
        }
      ],
      "name": "totalParticipant",
      "outputs": [
        {
          "internalType": "address",
          "name": "",
          "type": "address"
        }
      ],
      "stateMutability": "view",
      "type": "function"
    },
    {
      "inputs": [
        {
          "internalType": "uint256",
          "name": "_saleStartTime",
          "type": "uint256"
        },
        {
          "internalType": "uint256",
          "name": "_saleEndTime",
          "type": "uint256"
        },
        {
          "internalType": "uint256",
          "name": "_hardCap",
          "type": "uint256"
        },
        {
          "internalType": "uint256",
          "name": "_softCap",
          "type": "uint256"
        },
        {
          "internalType": "bool",
          "name": "_WhiteListEnabled",
          "type": "bool"
        },
        {
          "internalType": "uint256",
          "name": "_goal",
          "type": "uint256"
        }
      ],
      "name": "getsaleDetails",
      "outputs": [],
      "stateMutability": "nonpayable",
      "type": "function"
    },
    {
      "inputs": [
        {
          "internalType": "address",
          "name": "_address",
          "type": "address"
        }
      ],
      "name": "addWhitelist",
      "outputs": [],
      "stateMutability": "nonpayable",
      "type": "function"
    },
    {
      "inputs": [
        {
          "internalType": "address",
          "name": "_address",
          "type": "address"
        }
      ],
      "name": "getWhitelist",
      "outputs": [
        {
          "internalType": "bool",
          "name": "",
          "type": "bool"
        }
      ],
      "stateMutability": "view",
      "type": "function"
    }
  ],
  "bytecode": "0x6080604052600060085534801561001557600080fd5b50610a68806100256000396000f3fe608060405234801561001057600080fd5b50600436106100f55760003560e01c8063b2b04cc211610097578063eb17c4f111610066578063eb17c4f11461028a578063ed338ff1146102a8578063f0b53256146102c6578063f80f5dd5146102e4576100f5565b8063b2b04cc214610214578063b51661a314610230578063c59ee1dc1461024e578063e5e5846f1461026c576100f5565b806330edc0f5116100d357806330edc0f51461016657806342e94c90146101965780635040c6e7146101c6578063aff500f3146101e4576100f5565b80631cbaee2d146100fa57806323548b8b146101185780632bacb2d314610136575b600080fd5b610102610300565b60405161010f919061062f565b60405180910390f35b610120610306565b60405161012d919061062f565b60405180910390f35b610150600480360381019061014b919061067b565b61030c565b60405161015d91906106e9565b60405180910390f35b610180600480360381019061017b9190610730565b61034b565b60405161018d9190610778565b60405180910390f35b6101b060048036038101906101ab9190610730565b610408565b6040516101bd919061062f565b60405180910390f35b6101ce610420565b6040516101db919061062f565b60405180910390f35b6101fe60048036038101906101f9919061067b565b610426565b60405161020b91906106e9565b60405180910390f35b61022e600480360381019061022991906107bf565b610465565b005b6102386104b9565b604051610245919061062f565b60405180910390f35b6102566104bf565b604051610263919061062f565b60405180910390f35b6102746104c5565b6040516102819190610778565b60405180910390f35b6102926104d8565b60405161029f919061062f565b60405180910390f35b6102b06104de565b6040516102bd919061062f565b60405180910390f35b6102ce6104e4565b6040516102db919061062f565b60405180910390f35b6102fe60048036038101906102f99190610730565b6104ea565b005b60015481565b600c5481565b6005818154811061031c57600080fd5b906000526020600020016000915054906101000a900473ffffffffffffffffffffffffffffffffffffffff1681565b6000806000600d805490509050600091505b808210156103fc576000600d838154811061037b5761037a61084c565b5b9060005260206000200160009054906101000a900473ffffffffffffffffffffffffffffffffffffffff1690508473ffffffffffffffffffffffffffffffffffffffff168173ffffffffffffffffffffffffffffffffffffffff1614156103e85760019350505050610403565b5081806103f4906108aa565b92505061035d565b6000925050505b919050565b60006020528060005260406000206000915090505481565b60045481565b600f818154811061043657600080fd5b906000526020600020016000915054906101000a900473ffffffffffffffffffffffffffffffffffffffff1681565b854361047191906108f3565b600181905550844361048391906108f3565b600281905550826003819055508360048190555081600b60006101000a81548160ff021916908315150217905550505050505050565b60065481565b60085481565b600b60009054906101000a900460ff1681565b60075481565b60025481565b60035481565b600073ffffffffffffffffffffffffffffffffffffffff168173ffffffffffffffffffffffffffffffffffffffff16141561055a576040517f08c379a0000000000000000000000000000000000000000000000000000000008152600401610551906109a6565b60405180910390fd5b60011515600b60009054906101000a900460ff161515146105b0576040517f08c379a00000000000000000000000000000000000000000000000000000000081526004016105a790610a12565b60405180910390fd5b600d819080600181540180825580915050600190039060005260206000200160009091909190916101000a81548173ffffffffffffffffffffffffffffffffffffffff021916908373ffffffffffffffffffffffffffffffffffffffff16021790555050565b6000819050919050565b61062981610616565b82525050565b60006020820190506106446000830184610620565b92915050565b600080fd5b61065881610616565b811461066357600080fd5b50565b6000813590506106758161064f565b92915050565b6000602082840312156106915761069061064a565b5b600061069f84828501610666565b91505092915050565b600073ffffffffffffffffffffffffffffffffffffffff82169050919050565b60006106d3826106a8565b9050919050565b6106e3816106c8565b82525050565b60006020820190506106fe60008301846106da565b92915050565b61070d816106c8565b811461071857600080fd5b50565b60008135905061072a81610704565b92915050565b6000602082840312156107465761074561064a565b5b60006107548482850161071b565b91505092915050565b60008115159050919050565b6107728161075d565b82525050565b600060208201905061078d6000830184610769565b92915050565b61079c8161075d565b81146107a757600080fd5b50565b6000813590506107b981610793565b92915050565b60008060008060008060c087890312156107dc576107db61064a565b5b60006107ea89828a01610666565b96505060206107fb89828a01610666565b955050604061080c89828a01610666565b945050606061081d89828a01610666565b935050608061082e89828a016107aa565b92505060a061083f89828a01610666565b9150509295509295509295565b7f4e487b7100000000000000000000000000000000000000000000000000000000600052603260045260246000fd5b7f4e487b7100000000000000000000000000000000000000000000000000000000600052601160045260246000fd5b60006108b582610616565b91507fffffffffffffffffffffffffffffffffffffffffffffffffffffffffffffffff8214156108e8576108e761087b565b5b600182019050919050565b60006108fe82610616565b915061090983610616565b9250827fffffffffffffffffffffffffffffffffffffffffffffffffffffffffffffffff0382111561093e5761093d61087b565b5b828201905092915050565b600082825260208201905092915050565b7f496e76616c696420616464726573730000000000000000000000000000000000600082015250565b6000610990600f83610949565b915061099b8261095a565b602082019050919050565b600060208201905081810360008301526109bf81610983565b9050919050565b7f57686974654c697374206973206e6f7420456e61626c65640000000000000000600082015250565b60006109fc601883610949565b9150610a07826109c6565b602082019050919050565b60006020820190508181036000830152610a2b816109ef565b905091905056fea264697066735822122015009f39dca5e1848d070e83eb19de420e13c5b287ec0bec8fc08f30698e765464736f6c634300080a0033",
  "immutableReferences": {},
  "source": "// SPDX-License-Identifier: MIT\r\npragma solidity 0.8.10;\r\n\r\n// This is where to store other details like SaleTime, WhiteList e.t.c.\r\ncontract OtherSaleDetails{\r\n\r\n    mapping(address => uint) public contributions;\r\n    uint256 public saleStartTime;\r\n    uint256 public saleEndTime;\r\n    uint256 public SoftCap;\r\n    uint256 public HardCap;\r\n    address[] public totalParticipant;\r\n    uint256 public totalBnbRecieved;\r\n    uint256 public totalBnb;\r\n    uint public raisedAmount = 0; // total counts of contributors\r\n    uint totalContributors;\r\n    uint goal; // Amount that needs to be raised\r\n    bool public WhitelistEnabled;\r\n    uint public  maxCap;\r\n\r\n    address[] private Whitelist;\r\n    mapping(address => uint) buy;\r\n    address[] public totaParticipants;\r\n\r\n\r\n// To store Sale Details\r\n  function getsaleDetails(uint256 _saleStartTime, uint256 _saleEndTime, uint256 _hardCap, uint256 _softCap, bool _WhiteListEnabled, uint _goal) public {\r\n      saleStartTime = block.number + _saleStartTime;\r\n      saleEndTime = block.number + _saleEndTime;\r\n      SoftCap = _softCap;\r\n      HardCap = _hardCap;\r\n      WhitelistEnabled = _WhiteListEnabled;\r\n  }\r\n// Add Address into The Whitelist\r\n  function addWhitelist(address _address) external {\r\n    require(_address != address(0), \"Invalid address\");\r\n     require(WhitelistEnabled == true, \"WhiteList is not Enabled\");\r\n    Whitelist.push(_address);\r\n  }\r\n// Check the address in the WhiteList\r\n function getWhitelist(address _address) public view returns(bool) {\r\n    uint i;\r\n    uint length = Whitelist.length;\r\n    for (i = 0; i < length; i++) {\r\n      address _addressArr = Whitelist[i];\r\n      if (_addressArr == _address) {\r\n        return true;\r\n      }\r\n    }\r\n    return false;\r\n  }\r\n}",
  "sourcePath": "C:\\Users\\user\\Documents\\GitHub\\zsale\\ContractCode\\contracts\\OtherSaleDetails.sol",
  "compiler": {
    "name": "solc",
    "version": "0.8.10+commit.fc410830.Emscripten.clang"
  },
  "schemaVersion": "3.4.3",
  "updatedAt": "2021-11-10T16:07:30.182Z",
  "devdoc": {
    "kind": "dev",
    "methods": {},
    "version": 1
  },
  "userdoc": {
    "kind": "user",
    "methods": {},
    "version": 1
  }
}