{
  "contractName": "Payments",
  "abi": [
    {
      "anonymous": false,
      "inputs": [
        {
          "indexed": true,
          "internalType": "address",
          "name": "previousOwner",
          "type": "address"
        },
        {
          "indexed": true,
          "internalType": "address",
          "name": "newOwner",
          "type": "address"
        }
      ],
      "name": "OwnershipTransferred",
      "type": "event"
    },
    {
      "inputs": [],
      "name": "HardCap",
      "outputs": [
        {
          "internalType": "uint256",
          "name": "",
          "type": "uint256"
        }
      ],
      "stateMutability": "view",
      "type": "function"
    },
    {
      "inputs": [],
      "name": "SoftCap",
      "outputs": [
        {
          "internalType": "uint256",
          "name": "",
          "type": "uint256"
        }
      ],
      "stateMutability": "view",
      "type": "function"
    },
    {
      "inputs": [],
      "name": "WhitelistEnabled",
      "outputs": [
        {
          "internalType": "bool",
          "name": "",
          "type": "bool"
        }
      ],
      "stateMutability": "view",
      "type": "function"
    },
    {
      "inputs": [
        {
          "internalType": "address",
          "name": "_address",
          "type": "address"
        }
      ],
      "name": "addWhitelist",
      "outputs": [],
      "stateMutability": "nonpayable",
      "type": "function"
    },
    {
      "inputs": [
        {
          "internalType": "address",
          "name": "",
          "type": "address"
        }
      ],
      "name": "contributions",
      "outputs": [
        {
          "internalType": "uint256",
          "name": "",
          "type": "uint256"
        }
      ],
      "stateMutability": "view",
      "type": "function"
    },
    {
      "inputs": [
        {
          "internalType": "address",
          "name": "_address",
          "type": "address"
        }
      ],
      "name": "getWhitelist",
      "outputs": [
        {
          "internalType": "bool",
          "name": "",
          "type": "bool"
        }
      ],
      "stateMutability": "view",
      "type": "function"
    },
    {
      "inputs": [
        {
          "internalType": "uint256",
          "name": "_saleStartTime",
          "type": "uint256"
        },
        {
          "internalType": "uint256",
          "name": "_saleEndTime",
          "type": "uint256"
        },
        {
          "internalType": "uint256",
          "name": "_hardCap",
          "type": "uint256"
        },
        {
          "internalType": "uint256",
          "name": "_softCap",
          "type": "uint256"
        },
        {
          "internalType": "bool",
          "name": "_WhiteListEnabled",
          "type": "bool"
        },
        {
          "internalType": "uint256",
          "name": "_goal",
          "type": "uint256"
        }
      ],
      "name": "getsaleDetails",
      "outputs": [],
      "stateMutability": "nonpayable",
      "type": "function"
    },
    {
      "inputs": [],
      "name": "maxCap",
      "outputs": [
        {
          "internalType": "uint256",
          "name": "",
          "type": "uint256"
        }
      ],
      "stateMutability": "view",
      "type": "function"
    },
    {
      "inputs": [],
      "name": "owner",
      "outputs": [
        {
          "internalType": "address",
          "name": "",
          "type": "address"
        }
      ],
      "stateMutability": "view",
      "type": "function"
    },
    {
      "inputs": [],
      "name": "raisedAmount",
      "outputs": [
        {
          "internalType": "uint256",
          "name": "",
          "type": "uint256"
        }
      ],
      "stateMutability": "view",
      "type": "function"
    },
    {
      "inputs": [
        {
          "internalType": "uint256",
          "name": "",
          "type": "uint256"
        }
      ],
      "name": "request",
      "outputs": [
        {
          "internalType": "string",
          "name": "description",
          "type": "string"
        },
        {
          "internalType": "uint256",
          "name": "value",
          "type": "uint256"
        },
        {
          "internalType": "address",
          "name": "recipient",
          "type": "address"
        },
        {
          "internalType": "bool",
          "name": "completed",
          "type": "bool"
        },
        {
          "internalType": "uint256",
          "name": "numberOfVoters",
          "type": "uint256"
        }
      ],
      "stateMutability": "view",
      "type": "function"
    },
    {
      "inputs": [],
      "name": "saleEndTime",
      "outputs": [
        {
          "internalType": "uint256",
          "name": "",
          "type": "uint256"
        }
      ],
      "stateMutability": "view",
      "type": "function"
    },
    {
      "inputs": [],
      "name": "saleStartTime",
      "outputs": [
        {
          "internalType": "uint256",
          "name": "",
          "type": "uint256"
        }
      ],
      "stateMutability": "view",
      "type": "function"
    },
    {
      "inputs": [
        {
          "internalType": "uint256",
          "name": "",
          "type": "uint256"
        }
      ],
      "name": "totaParticipants",
      "outputs": [
        {
          "internalType": "address",
          "name": "",
          "type": "address"
        }
      ],
      "stateMutability": "view",
      "type": "function"
    },
    {
      "inputs": [],
      "name": "totalBnb",
      "outputs": [
        {
          "internalType": "uint256",
          "name": "",
          "type": "uint256"
        }
      ],
      "stateMutability": "view",
      "type": "function"
    },
    {
      "inputs": [],
      "name": "totalBnbRecieved",
      "outputs": [
        {
          "internalType": "uint256",
          "name": "",
          "type": "uint256"
        }
      ],
      "stateMutability": "view",
      "type": "function"
    },
    {
      "inputs": [
        {
          "internalType": "uint256",
          "name": "",
          "type": "uint256"
        }
      ],
      "name": "totalParticipant",
      "outputs": [
        {
          "internalType": "address",
          "name": "",
          "type": "address"
        }
      ],
      "stateMutability": "view",
      "type": "function"
    },
    {
      "inputs": [
        {
          "internalType": "address",
          "name": "newOwner",
          "type": "address"
        }
      ],
      "name": "transferOwnership",
      "outputs": [],
      "stateMutability": "payable",
      "type": "function"
    },
    {
      "inputs": [],
      "name": "contribute",
      "outputs": [],
      "stateMutability": "payable",
      "type": "function"
    }
  ],
  "bytecode": "0x60806040526000600a5534801561001557600080fd5b50336000806101000a81548173ffffffffffffffffffffffffffffffffffffffff021916908373ffffffffffffffffffffffffffffffffffffffff1602179055506110ef806100656000396000f3fe6080604052600436106101145760003560e01c8063b51661a3116100a0578063eb17c4f111610064578063eb17c4f1146103ae578063ed338ff1146103d9578063f0b5325614610404578063f2fde38b1461042f578063f80f5dd51461044b57610114565b8063b51661a3146102e2578063c59ee1dc1461030d578063d7bb99ba14610338578063d845a4b314610342578063e5e5846f1461038357610114565b806342e94c90116100e757806342e94c90146101e95780635040c6e7146102265780638da5cb5b14610251578063aff500f31461027c578063b2b04cc2146102b957610114565b80631cbaee2d1461011957806323548b8b146101445780632bacb2d31461016f57806330edc0f5146101ac575b600080fd5b34801561012557600080fd5b5061012e610474565b60405161013b9190610a9b565b60405180910390f35b34801561015057600080fd5b5061015961047a565b6040516101669190610a9b565b60405180910390f35b34801561017b57600080fd5b5061019660048036038101906101919190610ae7565b610480565b6040516101a39190610b55565b60405180910390f35b3480156101b857600080fd5b506101d360048036038101906101ce9190610b9c565b6104bf565b6040516101e09190610be4565b60405180910390f35b3480156101f557600080fd5b50610210600480360381019061020b9190610b9c565b61057c565b60405161021d9190610a9b565b60405180910390f35b34801561023257600080fd5b5061023b610594565b6040516102489190610a9b565b60405180910390f35b34801561025d57600080fd5b5061026661059a565b6040516102739190610b55565b60405180910390f35b34801561028857600080fd5b506102a3600480360381019061029e9190610ae7565b6105be565b6040516102b09190610b55565b60405180910390f35b3480156102c557600080fd5b506102e060048036038101906102db9190610c2b565b6105fd565b005b3480156102ee57600080fd5b506102f7610651565b6040516103049190610a9b565b60405180910390f35b34801561031957600080fd5b50610322610657565b60405161032f9190610a9b565b60405180910390f35b61034061065d565b005b34801561034e57600080fd5b5061036960048036038101906103649190610ae7565b6106e7565b60405161037a959493929190610d51565b60405180910390f35b34801561038f57600080fd5b506103986107e2565b6040516103a59190610be4565b60405180910390f35b3480156103ba57600080fd5b506103c36107f5565b6040516103d09190610a9b565b60405180910390f35b3480156103e557600080fd5b506103ee6107fb565b6040516103fb9190610a9b565b60405180910390f35b34801561041057600080fd5b50610419610801565b6040516104269190610a9b565b60405180910390f35b61044960048036038101906104449190610b9c565b610807565b005b34801561045757600080fd5b50610472600480360381019061046d9190610b9c565b610956565b005b60035481565b600e5481565b6007818154811061049057600080fd5b906000526020600020016000915054906101000a900473ffffffffffffffffffffffffffffffffffffffff1681565b6000806000600f805490509050600091505b80821015610570576000600f83815481106104ef576104ee610dab565b5b9060005260206000200160009054906101000a900473ffffffffffffffffffffffffffffffffffffffff1690508473ffffffffffffffffffffffffffffffffffffffff168173ffffffffffffffffffffffffffffffffffffffff16141561055c5760019350505050610577565b50818061056890610e09565b9250506104d1565b6000925050505b919050565b60026020528060005260406000206000915090505481565b60065481565b60008054906101000a900473ffffffffffffffffffffffffffffffffffffffff1681565b601181815481106105ce57600080fd5b906000526020600020016000915054906101000a900473ffffffffffffffffffffffffffffffffffffffff1681565b85436106099190610e52565b600381905550844361061b9190610e52565b600481905550826005819055508360068190555081600d60006101000a81548160ff021916908315150217905550505050505050565b60085481565b600a5481565b60045443106106a1576040517f08c379a000000000000000000000000000000000000000000000000000000000815260040161069890610ef4565b60405180910390fd5b60035443116106e5576040517f08c379a00000000000000000000000000000000000000000000000000000000081526004016106dc90610f60565b60405180910390fd5b565b601281815481106106f757600080fd5b906000526020600020906005020160009150905080600001805461071a90610faf565b80601f016020809104026020016040519081016040528092919081815260200182805461074690610faf565b80156107935780601f1061076857610100808354040283529160200191610793565b820191906000526020600020905b81548152906001019060200180831161077657829003601f168201915b5050505050908060010154908060020160009054906101000a900473ffffffffffffffffffffffffffffffffffffffff16908060020160149054906101000a900460ff16908060030154905085565b600d60009054906101000a900460ff1681565b60095481565b60045481565b60055481565b60008054906101000a900473ffffffffffffffffffffffffffffffffffffffff1673ffffffffffffffffffffffffffffffffffffffff163373ffffffffffffffffffffffffffffffffffffffff161461085f57600080fd5b600073ffffffffffffffffffffffffffffffffffffffff168173ffffffffffffffffffffffffffffffffffffffff16141561089957600080fd5b8073ffffffffffffffffffffffffffffffffffffffff1660008054906101000a900473ffffffffffffffffffffffffffffffffffffffff1673ffffffffffffffffffffffffffffffffffffffff167f8be0079c531659141344cd1fd0a4f28419497f9722a3daafe3b4186f6b6457e060405160405180910390a3806000806101000a81548173ffffffffffffffffffffffffffffffffffffffff021916908373ffffffffffffffffffffffffffffffffffffffff16021790555050565b600073ffffffffffffffffffffffffffffffffffffffff168173ffffffffffffffffffffffffffffffffffffffff1614156109c6576040517f08c379a00000000000000000000000000000000000000000000000000000000081526004016109bd9061102d565b60405180910390fd5b60011515600d60009054906101000a900460ff16151514610a1c576040517f08c379a0000000000000000000000000000000000000000000000000000000008152600401610a1390611099565b60405180910390fd5b600f819080600181540180825580915050600190039060005260206000200160009091909190916101000a81548173ffffffffffffffffffffffffffffffffffffffff021916908373ffffffffffffffffffffffffffffffffffffffff16021790555050565b6000819050919050565b610a9581610a82565b82525050565b6000602082019050610ab06000830184610a8c565b92915050565b600080fd5b610ac481610a82565b8114610acf57600080fd5b50565b600081359050610ae181610abb565b92915050565b600060208284031215610afd57610afc610ab6565b5b6000610b0b84828501610ad2565b91505092915050565b600073ffffffffffffffffffffffffffffffffffffffff82169050919050565b6000610b3f82610b14565b9050919050565b610b4f81610b34565b82525050565b6000602082019050610b6a6000830184610b46565b92915050565b610b7981610b34565b8114610b8457600080fd5b50565b600081359050610b9681610b70565b92915050565b600060208284031215610bb257610bb1610ab6565b5b6000610bc084828501610b87565b91505092915050565b60008115159050919050565b610bde81610bc9565b82525050565b6000602082019050610bf96000830184610bd5565b92915050565b610c0881610bc9565b8114610c1357600080fd5b50565b600081359050610c2581610bff565b92915050565b60008060008060008060c08789031215610c4857610c47610ab6565b5b6000610c5689828a01610ad2565b9650506020610c6789828a01610ad2565b9550506040610c7889828a01610ad2565b9450506060610c8989828a01610ad2565b9350506080610c9a89828a01610c16565b92505060a0610cab89828a01610ad2565b9150509295509295509295565b600081519050919050565b600082825260208201905092915050565b60005b83811015610cf2578082015181840152602081019050610cd7565b83811115610d01576000848401525b50505050565b6000601f19601f8301169050919050565b6000610d2382610cb8565b610d2d8185610cc3565b9350610d3d818560208601610cd4565b610d4681610d07565b840191505092915050565b600060a0820190508181036000830152610d6b8188610d18565b9050610d7a6020830187610a8c565b610d876040830186610b46565b610d946060830185610bd5565b610da16080830184610a8c565b9695505050505050565b7f4e487b7100000000000000000000000000000000000000000000000000000000600052603260045260246000fd5b7f4e487b7100000000000000000000000000000000000000000000000000000000600052601160045260246000fd5b6000610e1482610a82565b91507fffffffffffffffffffffffffffffffffffffffffffffffffffffffffffffffff821415610e4757610e46610dda565b5b600182019050919050565b6000610e5d82610a82565b9150610e6883610a82565b9250827fffffffffffffffffffffffffffffffffffffffffffffffffffffffffffffffff03821115610e9d57610e9c610dda565b5b828201905092915050565b7f53616c652048617320456e646564000000000000000000000000000000000000600082015250565b6000610ede600e83610cc3565b9150610ee982610ea8565b602082019050919050565b60006020820190508181036000830152610f0d81610ed1565b9050919050565b7f53616c6520486173204e6f7420426567616e0000000000000000000000000000600082015250565b6000610f4a601283610cc3565b9150610f5582610f14565b602082019050919050565b60006020820190508181036000830152610f7981610f3d565b9050919050565b7f4e487b7100000000000000000000000000000000000000000000000000000000600052602260045260246000fd5b60006002820490506001821680610fc757607f821691505b60208210811415610fdb57610fda610f80565b5b50919050565b7f496e76616c696420616464726573730000000000000000000000000000000000600082015250565b6000611017600f83610cc3565b915061102282610fe1565b602082019050919050565b600060208201905081810360008301526110468161100a565b9050919050565b7f57686974654c697374206973206e6f7420456e61626c65640000000000000000600082015250565b6000611083601883610cc3565b915061108e8261104d565b602082019050919050565b600060208201905081810360008301526110b281611076565b905091905056fea2646970667358221220f9f4dfcff5eb94978e289d177fcabaec720b01dd046eb209c748c5e47bbcf91364736f6c634300080a0033",
  "immutableReferences": {},
  "source": "// SPDX-License-Identifier: MIT\r\npragma solidity 0.8.10;\r\n\r\nimport \"../Campaign.sol\";\r\nimport \"../OtherSaleDetails.sol\";\r\nimport \"../Authority/Ownable.sol\";\r\nimport \"../Confirmations/ConfirmAddress.sol\";\r\n\r\ncontract Payments is Ownable, ConfirmAddress, OtherSaleDetails{\r\n    \r\n    \r\n    // For spending request\r\n    struct Request{\r\n        string description;\r\n        uint value;\r\n        address recipient;\r\n        bool completed;\r\n        uint numberOfVoters;\r\n        mapping(address => bool) voters;\r\n    }\r\n\r\n    Request[] public request;\r\n\r\n    // To send Value\r\n  function senValue(address payable recipient, uint256 amount) internal {\r\n      require(address(this).balance >= amount, \"Address: Insufficient balance\");\r\n\r\n      // solhint-disable-next-line avoid-low-level-calls, avoid-call-value\r\n      (bool success,) = recipient.call{value: amount}(\"\");require(success, \"Address: unable to send value, recipient may have reverted\");\r\n  }\r\n\r\n// To Contribute To the Sale\r\nfunction contribute() public payable{\r\n    require(block.number < saleEndTime, \"Sale Has Ended\");\r\n    require(block.number > saleStartTime, \"Sale Has Not Began\");\r\n}\r\n// To get refund when the requirement not ment\r\n// function getRefund() public {\r\n//     require(block.number > saleEndTime);\r\n//     require(block.number >= saleStartTime);\r\n//     require(contributions[msg.sender] > 0);\r\n\r\n//     msg.sender.transfer(contributions[msg.sender]);\r\n//     contributions[msg.sender] = 0;\r\n// }\r\n\r\n// Spending Request\r\n// function createSpendingReuest(string memory _description, address _address, uint _value) public onlyOwner{\r\n    \r\n// }\r\n\r\n\r\n}",
  "sourcePath": "C:\\Users\\user\\Documents\\GitHub\\zsale\\ContractCode\\contracts\\Payments\\Payments.sol",
  "compiler": {
    "name": "solc",
    "version": "0.8.10+commit.fc410830.Emscripten.clang"
  },
  "schemaVersion": "3.4.3",
  "updatedAt": "2021-11-10T16:07:30.187Z",
  "devdoc": {
    "kind": "dev",
    "methods": {},
    "version": 1
  },
  "userdoc": {
    "kind": "user",
    "methods": {},
    "version": 1
  }
}