{
  "contractName": "StorageSlot",
  "abi": [
    {
      "inputs": [],
      "name": "NAME",
      "outputs": [
        {
          "internalType": "string",
          "name": "",
          "type": "string"
        }
      ],
      "stateMutability": "view",
      "type": "function"
    },
    {
      "inputs": [
        {
          "internalType": "address",
          "name": "",
          "type": "address"
        }
      ],
      "name": "buyInOneTier",
      "outputs": [
        {
          "internalType": "uint256",
          "name": "",
          "type": "uint256"
        }
      ],
      "stateMutability": "view",
      "type": "function"
    },
    {
      "inputs": [
        {
          "internalType": "address",
          "name": "",
          "type": "address"
        }
      ],
      "name": "buyInThreeTier",
      "outputs": [
        {
          "internalType": "uint256",
          "name": "",
          "type": "uint256"
        }
      ],
      "stateMutability": "view",
      "type": "function"
    },
    {
      "inputs": [
        {
          "internalType": "address",
          "name": "",
          "type": "address"
        }
      ],
      "name": "buyInTwoTier",
      "outputs": [
        {
          "internalType": "uint256",
          "name": "",
          "type": "uint256"
        }
      ],
      "stateMutability": "view",
      "type": "function"
    },
    {
      "inputs": [],
      "name": "maxAllocaPerUserTierOne",
      "outputs": [
        {
          "internalType": "uint256",
          "name": "",
          "type": "uint256"
        }
      ],
      "stateMutability": "view",
      "type": "function"
    },
    {
      "inputs": [],
      "name": "maxAllocaPerUserTierThree",
      "outputs": [
        {
          "internalType": "uint256",
          "name": "",
          "type": "uint256"
        }
      ],
      "stateMutability": "view",
      "type": "function"
    },
    {
      "inputs": [],
      "name": "maxAllocaPerUserTierTwo",
      "outputs": [
        {
          "internalType": "uint256",
          "name": "",
          "type": "uint256"
        }
      ],
      "stateMutability": "view",
      "type": "function"
    },
    {
      "inputs": [],
      "name": "maxCap",
      "outputs": [
        {
          "internalType": "uint256",
          "name": "",
          "type": "uint256"
        }
      ],
      "stateMutability": "view",
      "type": "function"
    },
    {
      "inputs": [],
      "name": "projectOwner",
      "outputs": [
        {
          "internalType": "address payable",
          "name": "",
          "type": "address"
        }
      ],
      "stateMutability": "view",
      "type": "function"
    },
    {
      "inputs": [],
      "name": "saleEndTime",
      "outputs": [
        {
          "internalType": "uint256",
          "name": "",
          "type": "uint256"
        }
      ],
      "stateMutability": "view",
      "type": "function"
    },
    {
      "inputs": [],
      "name": "saleStartTime",
      "outputs": [
        {
          "internalType": "uint256",
          "name": "",
          "type": "uint256"
        }
      ],
      "stateMutability": "view",
      "type": "function"
    },
    {
      "inputs": [],
      "name": "tierOneMaxCap",
      "outputs": [
        {
          "internalType": "uint256",
          "name": "",
          "type": "uint256"
        }
      ],
      "stateMutability": "view",
      "type": "function"
    },
    {
      "inputs": [],
      "name": "tierThreeMaxCap",
      "outputs": [
        {
          "internalType": "uint256",
          "name": "",
          "type": "uint256"
        }
      ],
      "stateMutability": "view",
      "type": "function"
    },
    {
      "inputs": [],
      "name": "tierTwoMaxCap",
      "outputs": [
        {
          "internalType": "uint256",
          "name": "",
          "type": "uint256"
        }
      ],
      "stateMutability": "view",
      "type": "function"
    },
    {
      "inputs": [],
      "name": "totalBnbInTierOne",
      "outputs": [
        {
          "internalType": "uint256",
          "name": "",
          "type": "uint256"
        }
      ],
      "stateMutability": "view",
      "type": "function"
    },
    {
      "inputs": [],
      "name": "totalBnbInTierThree",
      "outputs": [
        {
          "internalType": "uint256",
          "name": "",
          "type": "uint256"
        }
      ],
      "stateMutability": "view",
      "type": "function"
    },
    {
      "inputs": [],
      "name": "totalBnbInTierTwo",
      "outputs": [
        {
          "internalType": "uint256",
          "name": "",
          "type": "uint256"
        }
      ],
      "stateMutability": "view",
      "type": "function"
    },
    {
      "inputs": [],
      "name": "totalBnbReceivedInAllTier",
      "outputs": [
        {
          "internalType": "uint256",
          "name": "",
          "type": "uint256"
        }
      ],
      "stateMutability": "view",
      "type": "function"
    },
    {
      "inputs": [],
      "name": "totalUserInTierOne",
      "outputs": [
        {
          "internalType": "uint256",
          "name": "",
          "type": "uint256"
        }
      ],
      "stateMutability": "view",
      "type": "function"
    },
    {
      "inputs": [],
      "name": "totalUserInTierThree",
      "outputs": [
        {
          "internalType": "uint256",
          "name": "",
          "type": "uint256"
        }
      ],
      "stateMutability": "view",
      "type": "function"
    },
    {
      "inputs": [],
      "name": "totalUserInTierTwo",
      "outputs": [
        {
          "internalType": "uint256",
          "name": "",
          "type": "uint256"
        }
      ],
      "stateMutability": "view",
      "type": "function"
    },
    {
      "inputs": [],
      "name": "totalparticipants",
      "outputs": [
        {
          "internalType": "uint256",
          "name": "",
          "type": "uint256"
        }
      ],
      "stateMutability": "view",
      "type": "function"
    }
  ],
  "bytecode": "0x608060405234801561001057600080fd5b506107c5806100206000396000f3fe608060405234801561001057600080fd5b50600436106101425760003560e01c8063a390c97f116100b8578063becbb04b1161007c578063becbb04b1461034b578063e0daa8ba14610369578063e8891b7d14610387578063ed338ff1146103a5578063f1e81e07146103c3578063fe36f6c9146103e157610142565b8063a390c97f146102b5578063a3f4df7e146102d3578063a4475ce4146102f1578063a8b40d8d1461030f578063b8307a3f1461032d57610142565b80635a81a53c1161010a5780635a81a53c146101dd57806371b9510d146101fb57806374c6bd0d1461022b578063823276c3146102495780639025764414610267578063a0ce460b1461028557610142565b806301099885146101475780631cbaee2d1461016557806323548b8b14610183578063244c4f10146101a15780634c0d8e8d146101bf575b600080fd5b61014f610411565b60405161015c919061058c565b60405180910390f35b61016d610417565b60405161017a919061058c565b60405180910390f35b61018b61041d565b604051610198919061058c565b60405180910390f35b6101a9610423565b6040516101b6919061058c565b60405180910390f35b6101c7610429565b6040516101d4919061058c565b60405180910390f35b6101e561042f565b6040516101f2919061058c565b60405180910390f35b6102156004803603810190610210919061060a565b610435565b604051610222919061058c565b60405180910390f35b61023361044d565b604051610240919061058c565b60405180910390f35b610251610453565b60405161025e919061058c565b60405180910390f35b61026f610459565b60405161027c919061058c565b60405180910390f35b61029f600480360381019061029a919061060a565b61045f565b6040516102ac919061058c565b60405180910390f35b6102bd610477565b6040516102ca919061058c565b60405180910390f35b6102db61047d565b6040516102e891906106d0565b60405180910390f35b6102f961050b565b6040516103069190610713565b60405180910390f35b610317610531565b604051610324919061058c565b60405180910390f35b610335610537565b604051610342919061058c565b60405180910390f35b61035361053d565b604051610360919061058c565b60405180910390f35b610371610543565b60405161037e919061058c565b60405180910390f35b61038f610549565b60405161039c919061058c565b60405180910390f35b6103ad61054f565b6040516103ba919061058c565b60405180910390f35b6103cb610555565b6040516103d8919061058c565b60405180910390f35b6103fb60048036038101906103f6919061060a565b61055b565b604051610408919061058c565b60405180910390f35b60085481565b60025481565b60015481565b600b5481565b60055481565b60065481565b60176020528060005260406000206000915090505481565b600f5481565b600a5481565b60105481565b60186020528060005260406000206000915090505481565b600c5481565b6000805461048a9061075d565b80601f01602080910402602001604051908101604052809291908181526020018280546104b69061075d565b80156105035780601f106104d857610100808354040283529160200191610503565b820191906000526020600020905b8154815290600101906020018083116104e657829003601f168201915b505050505081565b600960009054906101000a900473ffffffffffffffffffffffffffffffffffffffff1681565b60075481565b60045481565b60125481565b600d5481565b60115481565b60035481565b600e5481565b60166020528060005260406000206000915090505481565b6000819050919050565b61058681610573565b82525050565b60006020820190506105a1600083018461057d565b92915050565b600080fd5b600073ffffffffffffffffffffffffffffffffffffffff82169050919050565b60006105d7826105ac565b9050919050565b6105e7816105cc565b81146105f257600080fd5b50565b600081359050610604816105de565b92915050565b6000602082840312156106205761061f6105a7565b5b600061062e848285016105f5565b91505092915050565b600081519050919050565b600082825260208201905092915050565b60005b83811015610671578082015181840152602081019050610656565b83811115610680576000848401525b50505050565b6000601f19601f8301169050919050565b60006106a282610637565b6106ac8185610642565b93506106bc818560208601610653565b6106c581610686565b840191505092915050565b600060208201905081810360008301526106ea8184610697565b905092915050565b60006106fd826105ac565b9050919050565b61070d816106f2565b82525050565b60006020820190506107286000830184610704565b92915050565b7f4e487b7100000000000000000000000000000000000000000000000000000000600052602260045260246000fd5b6000600282049050600182168061077557607f821691505b602082108114156107895761078861072e565b5b5091905056fea2646970667358221220c307ef464d414b650099be31d509c932cf1b02c6ecc0062e12cde3d741bc512464736f6c634300080a0033",
  "immutableReferences": {},
  "source": "// SPDX-License-Identifier: MIT\r\npragma solidity 0.8.10;\r\n\r\ncontract StorageSlot{\r\n    \r\n    //token attributes\r\n  string public  NAME; //name of the contract\r\n  uint public  maxCap; // Max cap in BNB\r\n  uint256 public  saleStartTime; // start sale time\r\n  uint256 public  saleEndTime; // end sale time\r\n  uint256 public totalBnbReceivedInAllTier; // total bnd received\r\n  uint256 public totalBnbInTierOne; // total bnb for tier one\r\n  uint256 public totalBnbInTierTwo; // total bnb for tier Tier\r\n  uint256 public totalBnbInTierThree; // total bnb for tier Three\r\n  uint public totalparticipants; // total participants in ido\r\n  address payable public projectOwner; // project Owner\r\n  \r\n   // max cap per tier\r\n  uint public tierOneMaxCap;\r\n  uint public tierTwoMaxCap;\r\n  uint public tierThreeMaxCap;\r\n  \r\n  //total users per tier\r\n  uint public totalUserInTierOne;\r\n  uint public totalUserInTierTwo;\r\n  uint public totalUserInTierThree;\r\n  \r\n  //max allocations per user in a tier\r\n  uint public maxAllocaPerUserTierOne;\r\n  uint public maxAllocaPerUserTierTwo; \r\n  uint public maxAllocaPerUserTierThree;\r\n \r\n  // address array for tier one whitelist\r\n  address[] private whitelistTierOne; \r\n  \r\n  // address array for tier two whitelist\r\n  address[] private whitelistTierTwo; \r\n  \r\n  // address array for tier three whitelist\r\n  address[] private whitelistTierThree; \r\n  \r\n\r\n  //mapping the user purchase per tier\r\n  mapping(address => uint) public buyInOneTier;\r\n  mapping(address => uint) public buyInTwoTier;\r\n  mapping(address => uint) public buyInThreeTier;\r\n  \r\n\r\n}",
  "sourcePath": "C:\\Users\\user\\Documents\\GitHub\\zsale\\ContractCode\\contracts\\Storing\\StorageSlot.sol",
  "compiler": {
    "name": "solc",
    "version": "0.8.10+commit.fc410830.Emscripten.clang"
  },
  "schemaVersion": "3.4.3",
  "updatedAt": "2021-11-09T19:35:59.700Z",
  "devdoc": {
    "kind": "dev",
    "methods": {},
    "version": 1
  },
  "userdoc": {
    "kind": "user",
    "methods": {},
    "version": 1
  }
}